{
	"contracts/SimpleStorage.sol": {
		"SimpleStorage": {
			"abi": [
				{
					"inputs": [],
					"name": "clearPerson",
					"outputs": [],
					"stateMutability": "nonpayable",
					"type": "function"
				},
				{
					"inputs": [],
					"name": "getPerson",
					"outputs": [
						{
							"internalType": "string",
							"name": "",
							"type": "string"
						},
						{
							"internalType": "uint8",
							"name": "",
							"type": "uint8"
						},
						{
							"internalType": "uint256",
							"name": "",
							"type": "uint256"
						}
					],
					"stateMutability": "view",
					"type": "function"
				},
				{
					"inputs": [],
					"name": "person",
					"outputs": [
						{
							"internalType": "string",
							"name": "name",
							"type": "string"
						},
						{
							"internalType": "uint8",
							"name": "age",
							"type": "uint8"
						},
						{
							"internalType": "uint256",
							"name": "favoriteNumber",
							"type": "uint256"
						}
					],
					"stateMutability": "view",
					"type": "function"
				},
				{
					"inputs": [
						{
							"internalType": "string",
							"name": "_name",
							"type": "string"
						},
						{
							"internalType": "uint8",
							"name": "_age",
							"type": "uint8"
						},
						{
							"internalType": "uint256",
							"name": "_favoriteNumber",
							"type": "uint256"
						}
					],
					"name": "setPerson",
					"outputs": [],
					"stateMutability": "nonpayable",
					"type": "function"
				}
			],
			"devdoc": {
				"kind": "dev",
				"methods": {},
				"version": 1
			},
			"evm": {
				"assembly": "    /* \"contracts/SimpleStorage.sol\":60:628  contract SimpleStorage {... */\n  mstore(0x40, 0x80)\n    /* \"contracts/SimpleStorage.sol\":618:624  1 days */\n  0x015180\n    /* \"contracts/SimpleStorage.sol\":601:624  uint256 tunggu = 1 days */\n  0x03\n  sstore\n    /* \"contracts/SimpleStorage.sol\":60:628  contract SimpleStorage {... */\n  callvalue\n  dup1\n  iszero\n  tag_1\n  jumpi\n  0x00\n  dup1\n  revert\ntag_1:\n  pop\n  dataSize(sub_0)\n  dup1\n  dataOffset(sub_0)\n  0x00\n  codecopy\n  0x00\n  return\nstop\n\nsub_0: assembly {\n        /* \"contracts/SimpleStorage.sol\":60:628  contract SimpleStorage {... */\n      mstore(0x40, 0x80)\n      callvalue\n      dup1\n      iszero\n      tag_1\n      jumpi\n      0x00\n      dup1\n      revert\n    tag_1:\n      pop\n      jumpi(tag_2, lt(calldatasize, 0x04))\n      shr(0xe0, calldataload(0x00))\n      dup1\n      0x77ec2b55\n      eq\n      tag_3\n      jumpi\n      dup1\n      0x8ec4dc95\n      eq\n      tag_4\n      jumpi\n      dup1\n      0xc3af13ee\n      eq\n      tag_5\n      jumpi\n      dup1\n      0xdc63e34c\n      eq\n      tag_6\n      jumpi\n    tag_2:\n      0x00\n      dup1\n      revert\n        /* \"contracts/SimpleStorage.sol\":194:214  people public person */\n    tag_3:\n      tag_7\n      tag_8\n      jump\t// in\n    tag_7:\n      mload(0x40)\n      tag_9\n      swap4\n      swap3\n      swap2\n      swap1\n      tag_10\n      jump\t// in\n    tag_9:\n      mload(0x40)\n      dup1\n      swap2\n      sub\n      swap1\n      return\n        /* \"contracts/SimpleStorage.sol\":379:524  function getPerson() public view returns(string memory, uint8, uint256){... */\n    tag_4:\n      tag_11\n      tag_12\n      jump\t// in\n    tag_11:\n      mload(0x40)\n      tag_13\n      swap4\n      swap3\n      swap2\n      swap1\n      tag_10\n      jump\t// in\n    tag_13:\n      mload(0x40)\n      dup1\n      swap2\n      sub\n      swap1\n      return\n        /* \"contracts/SimpleStorage.sol\":535:593  function clearPerson() public {... */\n    tag_5:\n      tag_14\n      tag_15\n      jump\t// in\n    tag_14:\n      stop\n        /* \"contracts/SimpleStorage.sol\":223:371  function setPerson(string memory _name, uint8 _age, uint256 _favoriteNumber) public {... */\n    tag_6:\n      tag_16\n      0x04\n      dup1\n      calldatasize\n      sub\n      dup2\n      add\n      swap1\n      tag_17\n      swap2\n      swap1\n      tag_18\n      jump\t// in\n    tag_17:\n      tag_19\n      jump\t// in\n    tag_16:\n      stop\n        /* \"contracts/SimpleStorage.sol\":194:214  people public person */\n    tag_8:\n      0x00\n      dup1\n      0x00\n      add\n      dup1\n      sload\n      tag_20\n      swap1\n      tag_21\n      jump\t// in\n    tag_20:\n      dup1\n      0x1f\n      add\n      0x20\n      dup1\n      swap2\n      div\n      mul\n      0x20\n      add\n      mload(0x40)\n      swap1\n      dup2\n      add\n      0x40\n      mstore\n      dup1\n      swap3\n      swap2\n      swap1\n      dup2\n      dup2\n      mstore\n      0x20\n      add\n      dup3\n      dup1\n      sload\n      tag_22\n      swap1\n      tag_21\n      jump\t// in\n    tag_22:\n      dup1\n      iszero\n      tag_23\n      jumpi\n      dup1\n      0x1f\n      lt\n      tag_24\n      jumpi\n      0x0100\n      dup1\n      dup4\n      sload\n      div\n      mul\n      dup4\n      mstore\n      swap2\n      0x20\n      add\n      swap2\n      jump(tag_23)\n    tag_24:\n      dup3\n      add\n      swap2\n      swap1\n      0x00\n      mstore\n      keccak256(0x00, 0x20)\n      swap1\n    tag_25:\n      dup2\n      sload\n      dup2\n      mstore\n      swap1\n      0x01\n      add\n      swap1\n      0x20\n      add\n      dup1\n      dup4\n      gt\n      tag_25\n      jumpi\n      dup3\n      swap1\n      sub\n      0x1f\n      and\n      dup3\n      add\n      swap2\n    tag_23:\n      pop\n      pop\n      pop\n      pop\n      pop\n      swap1\n      dup1\n      0x01\n      add\n      0x00\n      swap1\n      sload\n      swap1\n      0x0100\n      exp\n      swap1\n      div\n      0xff\n      and\n      swap1\n      dup1\n      0x02\n      add\n      sload\n      swap1\n      pop\n      dup4\n      jump\t// out\n        /* \"contracts/SimpleStorage.sol\":379:524  function getPerson() public view returns(string memory, uint8, uint256){... */\n    tag_12:\n        /* \"contracts/SimpleStorage.sol\":420:433  string memory */\n      0x60\n        /* \"contracts/SimpleStorage.sol\":435:440  uint8 */\n      0x00\n        /* \"contracts/SimpleStorage.sol\":442:449  uint256 */\n      dup1\n        /* \"contracts/SimpleStorage.sol\":469:475  person */\n      0x00\n        /* \"contracts/SimpleStorage.sol\":469:480  person.name */\n      dup1\n      add\n        /* \"contracts/SimpleStorage.sol\":482:488  person */\n      0x00\n        /* \"contracts/SimpleStorage.sol\":482:492  person.age */\n      0x01\n      add\n      0x00\n      swap1\n      sload\n      swap1\n      0x0100\n      exp\n      swap1\n      div\n      0xff\n      and\n        /* \"contracts/SimpleStorage.sol\":494:500  person */\n      0x00\n        /* \"contracts/SimpleStorage.sol\":494:515  person.favoriteNumber */\n      0x02\n      add\n      sload\n        /* \"contracts/SimpleStorage.sol\":461:516  return (person.name, person.age, person.favoriteNumber) */\n      dup3\n      dup1\n      sload\n      tag_27\n      swap1\n      tag_21\n      jump\t// in\n    tag_27:\n      dup1\n      0x1f\n      add\n      0x20\n      dup1\n      swap2\n      div\n      mul\n      0x20\n      add\n      mload(0x40)\n      swap1\n      dup2\n      add\n      0x40\n      mstore\n      dup1\n      swap3\n      swap2\n      swap1\n      dup2\n      dup2\n      mstore\n      0x20\n      add\n      dup3\n      dup1\n      sload\n      tag_28\n      swap1\n      tag_21\n      jump\t// in\n    tag_28:\n      dup1\n      iszero\n      tag_29\n      jumpi\n      dup1\n      0x1f\n      lt\n      tag_30\n      jumpi\n      0x0100\n      dup1\n      dup4\n      sload\n      div\n      mul\n      dup4\n      mstore\n      swap2\n      0x20\n      add\n      swap2\n      jump(tag_29)\n    tag_30:\n      dup3\n      add\n      swap2\n      swap1\n      0x00\n      mstore\n      keccak256(0x00, 0x20)\n      swap1\n    tag_31:\n      dup2\n      sload\n      dup2\n      mstore\n      swap1\n      0x01\n      add\n      swap1\n      0x20\n      add\n      dup1\n      dup4\n      gt\n      tag_31\n      jumpi\n      dup3\n      swap1\n      sub\n      0x1f\n      and\n      dup3\n      add\n      swap2\n    tag_29:\n      pop\n      pop\n      pop\n      pop\n      pop\n      swap3\n      pop\n      swap3\n      pop\n      swap3\n      pop\n      swap3\n      pop\n        /* \"contracts/SimpleStorage.sol\":379:524  function getPerson() public view returns(string memory, uint8, uint256){... */\n      swap1\n      swap2\n      swap3\n      jump\t// out\n        /* \"contracts/SimpleStorage.sol\":535:593  function clearPerson() public {... */\n    tag_15:\n        /* \"contracts/SimpleStorage.sol\":579:585  person */\n      0x00\n      dup1\n        /* \"contracts/SimpleStorage.sol\":572:585  delete person */\n      0x00\n      dup3\n      add\n      0x00\n      tag_33\n      swap2\n      swap1\n      tag_34\n      jump\t// in\n    tag_33:\n      0x01\n      dup3\n      add\n      exp(0x0100, 0x00)\n      dup2\n      sload\n      swap1\n      0xff\n      mul\n      not\n      and\n      swap1\n      sstore\n      0x02\n      dup3\n      add\n      0x00\n      swap1\n      sstore\n      pop\n      pop\n        /* \"contracts/SimpleStorage.sol\":535:593  function clearPerson() public {... */\n      jump\t// out\n        /* \"contracts/SimpleStorage.sol\":223:371  function setPerson(string memory _name, uint8 _age, uint256 _favoriteNumber) public {... */\n    tag_19:\n        /* \"contracts/SimpleStorage.sol\":327:363  people(_name, _age, _favoriteNumber) */\n      mload(0x40)\n      dup1\n      0x60\n      add\n      0x40\n      mstore\n      dup1\n        /* \"contracts/SimpleStorage.sol\":334:339  _name */\n      dup5\n        /* \"contracts/SimpleStorage.sol\":327:363  people(_name, _age, _favoriteNumber) */\n      dup2\n      mstore\n      0x20\n      add\n        /* \"contracts/SimpleStorage.sol\":341:345  _age */\n      dup4\n        /* \"contracts/SimpleStorage.sol\":327:363  people(_name, _age, _favoriteNumber) */\n      0xff\n      and\n      dup2\n      mstore\n      0x20\n      add\n        /* \"contracts/SimpleStorage.sol\":347:362  _favoriteNumber */\n      dup3\n        /* \"contracts/SimpleStorage.sol\":327:363  people(_name, _age, _favoriteNumber) */\n      dup2\n      mstore\n      pop\n        /* \"contracts/SimpleStorage.sol\":318:324  person */\n      0x00\n        /* \"contracts/SimpleStorage.sol\":318:363  person = people(_name, _age, _favoriteNumber) */\n      dup1\n      dup3\n      add\n      mload\n      dup2\n      0x00\n      add\n      swap1\n      dup1\n      mload\n      swap1\n      0x20\n      add\n      swap1\n      tag_36\n      swap3\n      swap2\n      swap1\n      tag_37\n      jump\t// in\n    tag_36:\n      pop\n      0x20\n      dup3\n      add\n      mload\n      dup2\n      0x01\n      add\n      exp(0x0100, 0x00)\n      dup2\n      sload\n      dup2\n      0xff\n      mul\n      not\n      and\n      swap1\n      dup4\n      0xff\n      and\n      mul\n      or\n      swap1\n      sstore\n      pop\n      0x40\n      dup3\n      add\n      mload\n      dup2\n      0x02\n      add\n      sstore\n      swap1\n      pop\n      pop\n        /* \"contracts/SimpleStorage.sol\":223:371  function setPerson(string memory _name, uint8 _age, uint256 _favoriteNumber) public {... */\n      pop\n      pop\n      pop\n      jump\t// out\n    tag_34:\n      pop\n      dup1\n      sload\n      tag_38\n      swap1\n      tag_21\n      jump\t// in\n    tag_38:\n      0x00\n      dup3\n      sstore\n      dup1\n      0x1f\n      lt\n      tag_40\n      jumpi\n      pop\n      jump(tag_39)\n    tag_40:\n      0x1f\n      add\n      0x20\n      swap1\n      div\n      swap1\n      0x00\n      mstore\n      keccak256(0x00, 0x20)\n      swap1\n      dup2\n      add\n      swap1\n      tag_41\n      swap2\n      swap1\n      tag_42\n      jump\t// in\n    tag_41:\n    tag_39:\n      pop\n      jump\t// out\n    tag_37:\n      dup3\n      dup1\n      sload\n      tag_43\n      swap1\n      tag_21\n      jump\t// in\n    tag_43:\n      swap1\n      0x00\n      mstore\n      keccak256(0x00, 0x20)\n      swap1\n      0x1f\n      add\n      0x20\n      swap1\n      div\n      dup2\n      add\n      swap3\n      dup3\n      tag_45\n      jumpi\n      0x00\n      dup6\n      sstore\n      jump(tag_44)\n    tag_45:\n      dup3\n      0x1f\n      lt\n      tag_46\n      jumpi\n      dup1\n      mload\n      not(0xff)\n      and\n      dup4\n      dup1\n      add\n      or\n      dup6\n      sstore\n      jump(tag_44)\n    tag_46:\n      dup3\n      dup1\n      add\n      0x01\n      add\n      dup6\n      sstore\n      dup3\n      iszero\n      tag_44\n      jumpi\n      swap2\n      dup3\n      add\n    tag_47:\n      dup3\n      dup2\n      gt\n      iszero\n      tag_48\n      jumpi\n      dup3\n      mload\n      dup3\n      sstore\n      swap2\n      0x20\n      add\n      swap2\n      swap1\n      0x01\n      add\n      swap1\n      jump(tag_47)\n    tag_48:\n    tag_44:\n      pop\n      swap1\n      pop\n      tag_49\n      swap2\n      swap1\n      tag_42\n      jump\t// in\n    tag_49:\n      pop\n      swap1\n      jump\t// out\n    tag_42:\n    tag_50:\n      dup1\n      dup3\n      gt\n      iszero\n      tag_51\n      jumpi\n      0x00\n      dup2\n      0x00\n      swap1\n      sstore\n      pop\n      0x01\n      add\n      jump(tag_50)\n    tag_51:\n      pop\n      swap1\n      jump\t// out\n        /* \"#utility.yul\":7:106   */\n    tag_52:\n        /* \"#utility.yul\":59:65   */\n      0x00\n        /* \"#utility.yul\":93:98   */\n      dup2\n        /* \"#utility.yul\":87:99   */\n      mload\n        /* \"#utility.yul\":77:99   */\n      swap1\n      pop\n        /* \"#utility.yul\":7:106   */\n      swap2\n      swap1\n      pop\n      jump\t// out\n        /* \"#utility.yul\":112:281   */\n    tag_53:\n        /* \"#utility.yul\":196:207   */\n      0x00\n        /* \"#utility.yul\":230:236   */\n      dup3\n        /* \"#utility.yul\":225:228   */\n      dup3\n        /* \"#utility.yul\":218:237   */\n      mstore\n        /* \"#utility.yul\":270:274   */\n      0x20\n        /* \"#utility.yul\":265:268   */\n      dup3\n        /* \"#utility.yul\":261:275   */\n      add\n        /* \"#utility.yul\":246:275   */\n      swap1\n      pop\n        /* \"#utility.yul\":112:281   */\n      swap3\n      swap2\n      pop\n      pop\n      jump\t// out\n        /* \"#utility.yul\":287:594   */\n    tag_54:\n        /* \"#utility.yul\":355:356   */\n      0x00\n        /* \"#utility.yul\":365:478   */\n    tag_82:\n        /* \"#utility.yul\":379:385   */\n      dup4\n        /* \"#utility.yul\":376:377   */\n      dup2\n        /* \"#utility.yul\":373:386   */\n      lt\n        /* \"#utility.yul\":365:478   */\n      iszero\n      tag_84\n      jumpi\n        /* \"#utility.yul\":464:465   */\n      dup1\n        /* \"#utility.yul\":459:462   */\n      dup3\n        /* \"#utility.yul\":455:466   */\n      add\n        /* \"#utility.yul\":449:467   */\n      mload\n        /* \"#utility.yul\":445:446   */\n      dup2\n        /* \"#utility.yul\":440:443   */\n      dup5\n        /* \"#utility.yul\":436:447   */\n      add\n        /* \"#utility.yul\":429:468   */\n      mstore\n        /* \"#utility.yul\":401:403   */\n      0x20\n        /* \"#utility.yul\":398:399   */\n      dup2\n        /* \"#utility.yul\":394:404   */\n      add\n        /* \"#utility.yul\":389:404   */\n      swap1\n      pop\n        /* \"#utility.yul\":365:478   */\n      jump(tag_82)\n    tag_84:\n        /* \"#utility.yul\":496:502   */\n      dup4\n        /* \"#utility.yul\":493:494   */\n      dup2\n        /* \"#utility.yul\":490:503   */\n      gt\n        /* \"#utility.yul\":487:588   */\n      iszero\n      tag_85\n      jumpi\n        /* \"#utility.yul\":576:577   */\n      0x00\n        /* \"#utility.yul\":567:573   */\n      dup5\n        /* \"#utility.yul\":562:565   */\n      dup5\n        /* \"#utility.yul\":558:574   */\n      add\n        /* \"#utility.yul\":551:578   */\n      mstore\n        /* \"#utility.yul\":487:588   */\n    tag_85:\n        /* \"#utility.yul\":336:594   */\n      pop\n        /* \"#utility.yul\":287:594   */\n      pop\n      pop\n      pop\n      jump\t// out\n        /* \"#utility.yul\":600:702   */\n    tag_55:\n        /* \"#utility.yul\":641:647   */\n      0x00\n        /* \"#utility.yul\":692:694   */\n      0x1f\n        /* \"#utility.yul\":688:695   */\n      not\n        /* \"#utility.yul\":683:685   */\n      0x1f\n        /* \"#utility.yul\":676:681   */\n      dup4\n        /* \"#utility.yul\":672:686   */\n      add\n        /* \"#utility.yul\":668:696   */\n      and\n        /* \"#utility.yul\":658:696   */\n      swap1\n      pop\n        /* \"#utility.yul\":600:702   */\n      swap2\n      swap1\n      pop\n      jump\t// out\n        /* \"#utility.yul\":708:1072   */\n    tag_56:\n        /* \"#utility.yul\":796:799   */\n      0x00\n        /* \"#utility.yul\":824:863   */\n      tag_88\n        /* \"#utility.yul\":857:862   */\n      dup3\n        /* \"#utility.yul\":824:863   */\n      tag_52\n      jump\t// in\n    tag_88:\n        /* \"#utility.yul\":879:950   */\n      tag_89\n        /* \"#utility.yul\":943:949   */\n      dup2\n        /* \"#utility.yul\":938:941   */\n      dup6\n        /* \"#utility.yul\":879:950   */\n      tag_53\n      jump\t// in\n    tag_89:\n        /* \"#utility.yul\":872:950   */\n      swap4\n      pop\n        /* \"#utility.yul\":959:1011   */\n      tag_90\n        /* \"#utility.yul\":1004:1010   */\n      dup2\n        /* \"#utility.yul\":999:1002   */\n      dup6\n        /* \"#utility.yul\":992:996   */\n      0x20\n        /* \"#utility.yul\":985:990   */\n      dup7\n        /* \"#utility.yul\":981:997   */\n      add\n        /* \"#utility.yul\":959:1011   */\n      tag_54\n      jump\t// in\n    tag_90:\n        /* \"#utility.yul\":1036:1065   */\n      tag_91\n        /* \"#utility.yul\":1058:1064   */\n      dup2\n        /* \"#utility.yul\":1036:1065   */\n      tag_55\n      jump\t// in\n    tag_91:\n        /* \"#utility.yul\":1031:1034   */\n      dup5\n        /* \"#utility.yul\":1027:1066   */\n      add\n        /* \"#utility.yul\":1020:1066   */\n      swap2\n      pop\n        /* \"#utility.yul\":800:1072   */\n      pop\n        /* \"#utility.yul\":708:1072   */\n      swap3\n      swap2\n      pop\n      pop\n      jump\t// out\n        /* \"#utility.yul\":1078:1164   */\n    tag_57:\n        /* \"#utility.yul\":1113:1120   */\n      0x00\n        /* \"#utility.yul\":1153:1157   */\n      0xff\n        /* \"#utility.yul\":1146:1151   */\n      dup3\n        /* \"#utility.yul\":1142:1158   */\n      and\n        /* \"#utility.yul\":1131:1158   */\n      swap1\n      pop\n        /* \"#utility.yul\":1078:1164   */\n      swap2\n      swap1\n      pop\n      jump\t// out\n        /* \"#utility.yul\":1170:1282   */\n    tag_58:\n        /* \"#utility.yul\":1253:1275   */\n      tag_94\n        /* \"#utility.yul\":1269:1274   */\n      dup2\n        /* \"#utility.yul\":1253:1275   */\n      tag_57\n      jump\t// in\n    tag_94:\n        /* \"#utility.yul\":1248:1251   */\n      dup3\n        /* \"#utility.yul\":1241:1276   */\n      mstore\n        /* \"#utility.yul\":1170:1282   */\n      pop\n      pop\n      jump\t// out\n        /* \"#utility.yul\":1288:1365   */\n    tag_59:\n        /* \"#utility.yul\":1325:1332   */\n      0x00\n        /* \"#utility.yul\":1354:1359   */\n      dup2\n        /* \"#utility.yul\":1343:1359   */\n      swap1\n      pop\n        /* \"#utility.yul\":1288:1365   */\n      swap2\n      swap1\n      pop\n      jump\t// out\n        /* \"#utility.yul\":1371:1489   */\n    tag_60:\n        /* \"#utility.yul\":1458:1482   */\n      tag_97\n        /* \"#utility.yul\":1476:1481   */\n      dup2\n        /* \"#utility.yul\":1458:1482   */\n      tag_59\n      jump\t// in\n    tag_97:\n        /* \"#utility.yul\":1453:1456   */\n      dup3\n        /* \"#utility.yul\":1446:1483   */\n      mstore\n        /* \"#utility.yul\":1371:1489   */\n      pop\n      pop\n      jump\t// out\n        /* \"#utility.yul\":1495:2020   */\n    tag_10:\n        /* \"#utility.yul\":1660:1664   */\n      0x00\n        /* \"#utility.yul\":1698:1700   */\n      0x60\n        /* \"#utility.yul\":1687:1696   */\n      dup3\n        /* \"#utility.yul\":1683:1701   */\n      add\n        /* \"#utility.yul\":1675:1701   */\n      swap1\n      pop\n        /* \"#utility.yul\":1747:1756   */\n      dup2\n        /* \"#utility.yul\":1741:1745   */\n      dup2\n        /* \"#utility.yul\":1737:1757   */\n      sub\n        /* \"#utility.yul\":1733:1734   */\n      0x00\n        /* \"#utility.yul\":1722:1731   */\n      dup4\n        /* \"#utility.yul\":1718:1735   */\n      add\n        /* \"#utility.yul\":1711:1758   */\n      mstore\n        /* \"#utility.yul\":1775:1853   */\n      tag_99\n        /* \"#utility.yul\":1848:1852   */\n      dup2\n        /* \"#utility.yul\":1839:1845   */\n      dup7\n        /* \"#utility.yul\":1775:1853   */\n      tag_56\n      jump\t// in\n    tag_99:\n        /* \"#utility.yul\":1767:1853   */\n      swap1\n      pop\n        /* \"#utility.yul\":1863:1931   */\n      tag_100\n        /* \"#utility.yul\":1927:1929   */\n      0x20\n        /* \"#utility.yul\":1916:1925   */\n      dup4\n        /* \"#utility.yul\":1912:1930   */\n      add\n        /* \"#utility.yul\":1903:1909   */\n      dup6\n        /* \"#utility.yul\":1863:1931   */\n      tag_58\n      jump\t// in\n    tag_100:\n        /* \"#utility.yul\":1941:2013   */\n      tag_101\n        /* \"#utility.yul\":2009:2011   */\n      0x40\n        /* \"#utility.yul\":1998:2007   */\n      dup4\n        /* \"#utility.yul\":1994:2012   */\n      add\n        /* \"#utility.yul\":1985:1991   */\n      dup5\n        /* \"#utility.yul\":1941:2013   */\n      tag_60\n      jump\t// in\n    tag_101:\n        /* \"#utility.yul\":1495:2020   */\n      swap5\n      swap4\n      pop\n      pop\n      pop\n      pop\n      jump\t// out\n        /* \"#utility.yul\":2026:2101   */\n    tag_61:\n        /* \"#utility.yul\":2059:2065   */\n      0x00\n        /* \"#utility.yul\":2092:2094   */\n      0x40\n        /* \"#utility.yul\":2086:2095   */\n      mload\n        /* \"#utility.yul\":2076:2095   */\n      swap1\n      pop\n        /* \"#utility.yul\":2026:2101   */\n      swap1\n      jump\t// out\n        /* \"#utility.yul\":2107:2224   */\n    tag_62:\n        /* \"#utility.yul\":2216:2217   */\n      0x00\n        /* \"#utility.yul\":2213:2214   */\n      dup1\n        /* \"#utility.yul\":2206:2218   */\n      revert\n        /* \"#utility.yul\":2230:2347   */\n    tag_63:\n        /* \"#utility.yul\":2339:2340   */\n      0x00\n        /* \"#utility.yul\":2336:2337   */\n      dup1\n        /* \"#utility.yul\":2329:2341   */\n      revert\n        /* \"#utility.yul\":2353:2470   */\n    tag_64:\n        /* \"#utility.yul\":2462:2463   */\n      0x00\n        /* \"#utility.yul\":2459:2460   */\n      dup1\n        /* \"#utility.yul\":2452:2464   */\n      revert\n        /* \"#utility.yul\":2476:2593   */\n    tag_65:\n        /* \"#utility.yul\":2585:2586   */\n      0x00\n        /* \"#utility.yul\":2582:2583   */\n      dup1\n        /* \"#utility.yul\":2575:2587   */\n      revert\n        /* \"#utility.yul\":2599:2779   */\n    tag_66:\n        /* \"#utility.yul\":2647:2724   */\n      0x4e487b7100000000000000000000000000000000000000000000000000000000\n        /* \"#utility.yul\":2644:2645   */\n      0x00\n        /* \"#utility.yul\":2637:2725   */\n      mstore\n        /* \"#utility.yul\":2744:2748   */\n      0x41\n        /* \"#utility.yul\":2741:2742   */\n      0x04\n        /* \"#utility.yul\":2734:2749   */\n      mstore\n        /* \"#utility.yul\":2768:2772   */\n      0x24\n        /* \"#utility.yul\":2765:2766   */\n      0x00\n        /* \"#utility.yul\":2758:2773   */\n      revert\n        /* \"#utility.yul\":2785:3066   */\n    tag_67:\n        /* \"#utility.yul\":2868:2895   */\n      tag_109\n        /* \"#utility.yul\":2890:2894   */\n      dup3\n        /* \"#utility.yul\":2868:2895   */\n      tag_55\n      jump\t// in\n    tag_109:\n        /* \"#utility.yul\":2860:2866   */\n      dup2\n        /* \"#utility.yul\":2856:2896   */\n      add\n        /* \"#utility.yul\":2998:3004   */\n      dup2\n        /* \"#utility.yul\":2986:2996   */\n      dup2\n        /* \"#utility.yul\":2983:3005   */\n      lt\n        /* \"#utility.yul\":2962:2980   */\n      0xffffffffffffffff\n        /* \"#utility.yul\":2950:2960   */\n      dup3\n        /* \"#utility.yul\":2947:2981   */\n      gt\n        /* \"#utility.yul\":2944:3006   */\n      or\n        /* \"#utility.yul\":2941:3029   */\n      iszero\n      tag_110\n      jumpi\n        /* \"#utility.yul\":3009:3027   */\n      tag_111\n      tag_66\n      jump\t// in\n    tag_111:\n        /* \"#utility.yul\":2941:3029   */\n    tag_110:\n        /* \"#utility.yul\":3049:3059   */\n      dup1\n        /* \"#utility.yul\":3045:3047   */\n      0x40\n        /* \"#utility.yul\":3038:3060   */\n      mstore\n        /* \"#utility.yul\":2828:3066   */\n      pop\n        /* \"#utility.yul\":2785:3066   */\n      pop\n      pop\n      jump\t// out\n        /* \"#utility.yul\":3072:3201   */\n    tag_68:\n        /* \"#utility.yul\":3106:3112   */\n      0x00\n        /* \"#utility.yul\":3133:3153   */\n      tag_113\n      tag_61\n      jump\t// in\n    tag_113:\n        /* \"#utility.yul\":3123:3153   */\n      swap1\n      pop\n        /* \"#utility.yul\":3162:3195   */\n      tag_114\n        /* \"#utility.yul\":3190:3194   */\n      dup3\n        /* \"#utility.yul\":3182:3188   */\n      dup3\n        /* \"#utility.yul\":3162:3195   */\n      tag_67\n      jump\t// in\n    tag_114:\n        /* \"#utility.yul\":3072:3201   */\n      swap2\n      swap1\n      pop\n      jump\t// out\n        /* \"#utility.yul\":3207:3515   */\n    tag_69:\n        /* \"#utility.yul\":3269:3273   */\n      0x00\n        /* \"#utility.yul\":3359:3377   */\n      0xffffffffffffffff\n        /* \"#utility.yul\":3351:3357   */\n      dup3\n        /* \"#utility.yul\":3348:3378   */\n      gt\n        /* \"#utility.yul\":3345:3401   */\n      iszero\n      tag_116\n      jumpi\n        /* \"#utility.yul\":3381:3399   */\n      tag_117\n      tag_66\n      jump\t// in\n    tag_117:\n        /* \"#utility.yul\":3345:3401   */\n    tag_116:\n        /* \"#utility.yul\":3419:3448   */\n      tag_118\n        /* \"#utility.yul\":3441:3447   */\n      dup3\n        /* \"#utility.yul\":3419:3448   */\n      tag_55\n      jump\t// in\n    tag_118:\n        /* \"#utility.yul\":3411:3448   */\n      swap1\n      pop\n        /* \"#utility.yul\":3503:3507   */\n      0x20\n        /* \"#utility.yul\":3497:3501   */\n      dup2\n        /* \"#utility.yul\":3493:3508   */\n      add\n        /* \"#utility.yul\":3485:3508   */\n      swap1\n      pop\n        /* \"#utility.yul\":3207:3515   */\n      swap2\n      swap1\n      pop\n      jump\t// out\n        /* \"#utility.yul\":3521:3675   */\n    tag_70:\n        /* \"#utility.yul\":3605:3611   */\n      dup3\n        /* \"#utility.yul\":3600:3603   */\n      dup2\n        /* \"#utility.yul\":3595:3598   */\n      dup4\n        /* \"#utility.yul\":3582:3612   */\n      calldatacopy\n        /* \"#utility.yul\":3667:3668   */\n      0x00\n        /* \"#utility.yul\":3658:3664   */\n      dup4\n        /* \"#utility.yul\":3653:3656   */\n      dup4\n        /* \"#utility.yul\":3649:3665   */\n      add\n        /* \"#utility.yul\":3642:3669   */\n      mstore\n        /* \"#utility.yul\":3521:3675   */\n      pop\n      pop\n      pop\n      jump\t// out\n        /* \"#utility.yul\":3681:4093   */\n    tag_71:\n        /* \"#utility.yul\":3759:3764   */\n      0x00\n        /* \"#utility.yul\":3784:3850   */\n      tag_121\n        /* \"#utility.yul\":3800:3849   */\n      tag_122\n        /* \"#utility.yul\":3842:3848   */\n      dup5\n        /* \"#utility.yul\":3800:3849   */\n      tag_69\n      jump\t// in\n    tag_122:\n        /* \"#utility.yul\":3784:3850   */\n      tag_68\n      jump\t// in\n    tag_121:\n        /* \"#utility.yul\":3775:3850   */\n      swap1\n      pop\n        /* \"#utility.yul\":3873:3879   */\n      dup3\n        /* \"#utility.yul\":3866:3871   */\n      dup2\n        /* \"#utility.yul\":3859:3880   */\n      mstore\n        /* \"#utility.yul\":3911:3915   */\n      0x20\n        /* \"#utility.yul\":3904:3909   */\n      dup2\n        /* \"#utility.yul\":3900:3916   */\n      add\n        /* \"#utility.yul\":3949:3952   */\n      dup5\n        /* \"#utility.yul\":3940:3946   */\n      dup5\n        /* \"#utility.yul\":3935:3938   */\n      dup5\n        /* \"#utility.yul\":3931:3947   */\n      add\n        /* \"#utility.yul\":3928:3953   */\n      gt\n        /* \"#utility.yul\":3925:4037   */\n      iszero\n      tag_123\n      jumpi\n        /* \"#utility.yul\":3956:4035   */\n      tag_124\n      tag_65\n      jump\t// in\n    tag_124:\n        /* \"#utility.yul\":3925:4037   */\n    tag_123:\n        /* \"#utility.yul\":4046:4087   */\n      tag_125\n        /* \"#utility.yul\":4080:4086   */\n      dup5\n        /* \"#utility.yul\":4075:4078   */\n      dup3\n        /* \"#utility.yul\":4070:4073   */\n      dup6\n        /* \"#utility.yul\":4046:4087   */\n      tag_70\n      jump\t// in\n    tag_125:\n        /* \"#utility.yul\":3765:4093   */\n      pop\n        /* \"#utility.yul\":3681:4093   */\n      swap4\n      swap3\n      pop\n      pop\n      pop\n      jump\t// out\n        /* \"#utility.yul\":4113:4453   */\n    tag_72:\n        /* \"#utility.yul\":4169:4174   */\n      0x00\n        /* \"#utility.yul\":4218:4221   */\n      dup3\n        /* \"#utility.yul\":4211:4215   */\n      0x1f\n        /* \"#utility.yul\":4203:4209   */\n      dup4\n        /* \"#utility.yul\":4199:4216   */\n      add\n        /* \"#utility.yul\":4195:4222   */\n      slt\n        /* \"#utility.yul\":4185:4307   */\n      tag_127\n      jumpi\n        /* \"#utility.yul\":4226:4305   */\n      tag_128\n      tag_64\n      jump\t// in\n    tag_128:\n        /* \"#utility.yul\":4185:4307   */\n    tag_127:\n        /* \"#utility.yul\":4343:4349   */\n      dup2\n        /* \"#utility.yul\":4330:4350   */\n      calldataload\n        /* \"#utility.yul\":4368:4447   */\n      tag_129\n        /* \"#utility.yul\":4443:4446   */\n      dup5\n        /* \"#utility.yul\":4435:4441   */\n      dup3\n        /* \"#utility.yul\":4428:4432   */\n      0x20\n        /* \"#utility.yul\":4420:4426   */\n      dup7\n        /* \"#utility.yul\":4416:4433   */\n      add\n        /* \"#utility.yul\":4368:4447   */\n      tag_71\n      jump\t// in\n    tag_129:\n        /* \"#utility.yul\":4359:4447   */\n      swap2\n      pop\n        /* \"#utility.yul\":4175:4453   */\n      pop\n        /* \"#utility.yul\":4113:4453   */\n      swap3\n      swap2\n      pop\n      pop\n      jump\t// out\n        /* \"#utility.yul\":4459:4577   */\n    tag_73:\n        /* \"#utility.yul\":4530:4552   */\n      tag_131\n        /* \"#utility.yul\":4546:4551   */\n      dup2\n        /* \"#utility.yul\":4530:4552   */\n      tag_57\n      jump\t// in\n    tag_131:\n        /* \"#utility.yul\":4523:4528   */\n      dup2\n        /* \"#utility.yul\":4520:4553   */\n      eq\n        /* \"#utility.yul\":4510:4571   */\n      tag_132\n      jumpi\n        /* \"#utility.yul\":4567:4568   */\n      0x00\n        /* \"#utility.yul\":4564:4565   */\n      dup1\n        /* \"#utility.yul\":4557:4569   */\n      revert\n        /* \"#utility.yul\":4510:4571   */\n    tag_132:\n        /* \"#utility.yul\":4459:4577   */\n      pop\n      jump\t// out\n        /* \"#utility.yul\":4583:4718   */\n    tag_74:\n        /* \"#utility.yul\":4627:4632   */\n      0x00\n        /* \"#utility.yul\":4665:4671   */\n      dup2\n        /* \"#utility.yul\":4652:4672   */\n      calldataload\n        /* \"#utility.yul\":4643:4672   */\n      swap1\n      pop\n        /* \"#utility.yul\":4681:4712   */\n      tag_134\n        /* \"#utility.yul\":4706:4711   */\n      dup2\n        /* \"#utility.yul\":4681:4712   */\n      tag_73\n      jump\t// in\n    tag_134:\n        /* \"#utility.yul\":4583:4718   */\n      swap3\n      swap2\n      pop\n      pop\n      jump\t// out\n        /* \"#utility.yul\":4724:4846   */\n    tag_75:\n        /* \"#utility.yul\":4797:4821   */\n      tag_136\n        /* \"#utility.yul\":4815:4820   */\n      dup2\n        /* \"#utility.yul\":4797:4821   */\n      tag_59\n      jump\t// in\n    tag_136:\n        /* \"#utility.yul\":4790:4795   */\n      dup2\n        /* \"#utility.yul\":4787:4822   */\n      eq\n        /* \"#utility.yul\":4777:4840   */\n      tag_137\n      jumpi\n        /* \"#utility.yul\":4836:4837   */\n      0x00\n        /* \"#utility.yul\":4833:4834   */\n      dup1\n        /* \"#utility.yul\":4826:4838   */\n      revert\n        /* \"#utility.yul\":4777:4840   */\n    tag_137:\n        /* \"#utility.yul\":4724:4846   */\n      pop\n      jump\t// out\n        /* \"#utility.yul\":4852:4991   */\n    tag_76:\n        /* \"#utility.yul\":4898:4903   */\n      0x00\n        /* \"#utility.yul\":4936:4942   */\n      dup2\n        /* \"#utility.yul\":4923:4943   */\n      calldataload\n        /* \"#utility.yul\":4914:4943   */\n      swap1\n      pop\n        /* \"#utility.yul\":4952:4985   */\n      tag_139\n        /* \"#utility.yul\":4979:4984   */\n      dup2\n        /* \"#utility.yul\":4952:4985   */\n      tag_75\n      jump\t// in\n    tag_139:\n        /* \"#utility.yul\":4852:4991   */\n      swap3\n      swap2\n      pop\n      pop\n      jump\t// out\n        /* \"#utility.yul\":4997:5792   */\n    tag_18:\n        /* \"#utility.yul\":5082:5088   */\n      0x00\n        /* \"#utility.yul\":5090:5096   */\n      dup1\n        /* \"#utility.yul\":5098:5104   */\n      0x00\n        /* \"#utility.yul\":5147:5149   */\n      0x60\n        /* \"#utility.yul\":5135:5144   */\n      dup5\n        /* \"#utility.yul\":5126:5133   */\n      dup7\n        /* \"#utility.yul\":5122:5145   */\n      sub\n        /* \"#utility.yul\":5118:5150   */\n      slt\n        /* \"#utility.yul\":5115:5234   */\n      iszero\n      tag_141\n      jumpi\n        /* \"#utility.yul\":5153:5232   */\n      tag_142\n      tag_62\n      jump\t// in\n    tag_142:\n        /* \"#utility.yul\":5115:5234   */\n    tag_141:\n        /* \"#utility.yul\":5301:5302   */\n      0x00\n        /* \"#utility.yul\":5290:5299   */\n      dup5\n        /* \"#utility.yul\":5286:5303   */\n      add\n        /* \"#utility.yul\":5273:5304   */\n      calldataload\n        /* \"#utility.yul\":5331:5349   */\n      0xffffffffffffffff\n        /* \"#utility.yul\":5323:5329   */\n      dup2\n        /* \"#utility.yul\":5320:5350   */\n      gt\n        /* \"#utility.yul\":5317:5434   */\n      iszero\n      tag_143\n      jumpi\n        /* \"#utility.yul\":5353:5432   */\n      tag_144\n      tag_63\n      jump\t// in\n    tag_144:\n        /* \"#utility.yul\":5317:5434   */\n    tag_143:\n        /* \"#utility.yul\":5458:5521   */\n      tag_145\n        /* \"#utility.yul\":5513:5520   */\n      dup7\n        /* \"#utility.yul\":5504:5510   */\n      dup3\n        /* \"#utility.yul\":5493:5502   */\n      dup8\n        /* \"#utility.yul\":5489:5511   */\n      add\n        /* \"#utility.yul\":5458:5521   */\n      tag_72\n      jump\t// in\n    tag_145:\n        /* \"#utility.yul\":5448:5521   */\n      swap4\n      pop\n        /* \"#utility.yul\":5244:5531   */\n      pop\n        /* \"#utility.yul\":5570:5572   */\n      0x20\n        /* \"#utility.yul\":5596:5647   */\n      tag_146\n        /* \"#utility.yul\":5639:5646   */\n      dup7\n        /* \"#utility.yul\":5630:5636   */\n      dup3\n        /* \"#utility.yul\":5619:5628   */\n      dup8\n        /* \"#utility.yul\":5615:5637   */\n      add\n        /* \"#utility.yul\":5596:5647   */\n      tag_74\n      jump\t// in\n    tag_146:\n        /* \"#utility.yul\":5586:5647   */\n      swap3\n      pop\n        /* \"#utility.yul\":5541:5657   */\n      pop\n        /* \"#utility.yul\":5696:5698   */\n      0x40\n        /* \"#utility.yul\":5722:5775   */\n      tag_147\n        /* \"#utility.yul\":5767:5774   */\n      dup7\n        /* \"#utility.yul\":5758:5764   */\n      dup3\n        /* \"#utility.yul\":5747:5756   */\n      dup8\n        /* \"#utility.yul\":5743:5765   */\n      add\n        /* \"#utility.yul\":5722:5775   */\n      tag_76\n      jump\t// in\n    tag_147:\n        /* \"#utility.yul\":5712:5775   */\n      swap2\n      pop\n        /* \"#utility.yul\":5667:5785   */\n      pop\n        /* \"#utility.yul\":4997:5792   */\n      swap3\n      pop\n      swap3\n      pop\n      swap3\n      jump\t// out\n        /* \"#utility.yul\":5798:5978   */\n    tag_77:\n        /* \"#utility.yul\":5846:5923   */\n      0x4e487b7100000000000000000000000000000000000000000000000000000000\n        /* \"#utility.yul\":5843:5844   */\n      0x00\n        /* \"#utility.yul\":5836:5924   */\n      mstore\n        /* \"#utility.yul\":5943:5947   */\n      0x22\n        /* \"#utility.yul\":5940:5941   */\n      0x04\n        /* \"#utility.yul\":5933:5948   */\n      mstore\n        /* \"#utility.yul\":5967:5971   */\n      0x24\n        /* \"#utility.yul\":5964:5965   */\n      0x00\n        /* \"#utility.yul\":5957:5972   */\n      revert\n        /* \"#utility.yul\":5984:6304   */\n    tag_21:\n        /* \"#utility.yul\":6028:6034   */\n      0x00\n        /* \"#utility.yul\":6065:6066   */\n      0x02\n        /* \"#utility.yul\":6059:6063   */\n      dup3\n        /* \"#utility.yul\":6055:6067   */\n      div\n        /* \"#utility.yul\":6045:6067   */\n      swap1\n      pop\n        /* \"#utility.yul\":6112:6113   */\n      0x01\n        /* \"#utility.yul\":6106:6110   */\n      dup3\n        /* \"#utility.yul\":6102:6114   */\n      and\n        /* \"#utility.yul\":6133:6151   */\n      dup1\n        /* \"#utility.yul\":6123:6204   */\n      tag_150\n      jumpi\n        /* \"#utility.yul\":6189:6193   */\n      0x7f\n        /* \"#utility.yul\":6181:6187   */\n      dup3\n        /* \"#utility.yul\":6177:6194   */\n      and\n        /* \"#utility.yul\":6167:6194   */\n      swap2\n      pop\n        /* \"#utility.yul\":6123:6204   */\n    tag_150:\n        /* \"#utility.yul\":6251:6253   */\n      0x20\n        /* \"#utility.yul\":6243:6249   */\n      dup3\n        /* \"#utility.yul\":6240:6254   */\n      lt\n        /* \"#utility.yul\":6220:6238   */\n      dup2\n        /* \"#utility.yul\":6217:6255   */\n      eq\n        /* \"#utility.yul\":6214:6298   */\n      iszero\n      tag_151\n      jumpi\n        /* \"#utility.yul\":6270:6288   */\n      tag_152\n      tag_77\n      jump\t// in\n    tag_152:\n        /* \"#utility.yul\":6214:6298   */\n    tag_151:\n        /* \"#utility.yul\":6035:6304   */\n      pop\n        /* \"#utility.yul\":5984:6304   */\n      swap2\n      swap1\n      pop\n      jump\t// out\n\n    auxdata: 0xa2646970667358221220f0b76cf3d74d368bda5e7c9e961b76a2e6d33cb36d6872e3b51c2b889e8b657864736f6c63430008080033\n}\n",
				"bytecode": {
					"linkReferences": {},
					"object": "60806040526201518060035534801561001757600080fd5b50610755806100276000396000f3fe608060405234801561001057600080fd5b506004361061004c5760003560e01c806377ec2b55146100515780638ec4dc9514610071578063c3af13ee14610091578063dc63e34c1461009b575b600080fd5b6100596100b7565b60405161006893929190610470565b60405180910390f35b610079610164565b60405161008893929190610470565b60405180910390f35b61009961021d565b005b6100b560048036038101906100b0919061064f565b610250565b005b60008060000180546100c8906106ed565b80601f01602080910402602001604051908101604052809291908181526020018280546100f4906106ed565b80156101415780601f1061011657610100808354040283529160200191610141565b820191906000526020600020905b81548152906001019060200180831161012457829003601f168201915b5050505050908060010160009054906101000a900460ff16908060020154905083565b606060008060008001600060010160009054906101000a900460ff16600060020154828054610192906106ed565b80601f01602080910402602001604051908101604052809291908181526020018280546101be906106ed565b801561020b5780601f106101e05761010080835404028352916020019161020b565b820191906000526020600020905b8154815290600101906020018083116101ee57829003601f168201915b50505050509250925092509250909192565b60008060008201600061023091906102bf565b6001820160006101000a81549060ff021916905560028201600090555050565b60405180606001604052808481526020018360ff1681526020018281525060008082015181600001908051906020019061028b9291906102ff565b5060208201518160010160006101000a81548160ff021916908360ff16021790555060408201518160020155905050505050565b5080546102cb906106ed565b6000825580601f106102dd57506102fc565b601f0160209004906000526020600020908101906102fb9190610385565b5b50565b82805461030b906106ed565b90600052602060002090601f01602090048101928261032d5760008555610374565b82601f1061034657805160ff1916838001178555610374565b82800160010185558215610374579182015b82811115610373578251825591602001919060010190610358565b5b5090506103819190610385565b5090565b5b8082111561039e576000816000905550600101610386565b5090565b600081519050919050565b600082825260208201905092915050565b60005b838110156103dc5780820151818401526020810190506103c1565b838111156103eb576000848401525b50505050565b6000601f19601f8301169050919050565b600061040d826103a2565b61041781856103ad565b93506104278185602086016103be565b610430816103f1565b840191505092915050565b600060ff82169050919050565b6104518161043b565b82525050565b6000819050919050565b61046a81610457565b82525050565b6000606082019050818103600083015261048a8186610402565b90506104996020830185610448565b6104a66040830184610461565b949350505050565b6000604051905090565b600080fd5b600080fd5b600080fd5b600080fd5b7f4e487b7100000000000000000000000000000000000000000000000000000000600052604160045260246000fd5b610504826103f1565b810181811067ffffffffffffffff82111715610523576105226104cc565b5b80604052505050565b60006105366104ae565b905061054282826104fb565b919050565b600067ffffffffffffffff821115610562576105616104cc565b5b61056b826103f1565b9050602081019050919050565b82818337600083830152505050565b600061059a61059584610547565b61052c565b9050828152602081018484840111156105b6576105b56104c7565b5b6105c1848285610578565b509392505050565b600082601f8301126105de576105dd6104c2565b5b81356105ee848260208601610587565b91505092915050565b6106008161043b565b811461060b57600080fd5b50565b60008135905061061d816105f7565b92915050565b61062c81610457565b811461063757600080fd5b50565b60008135905061064981610623565b92915050565b600080600060608486031215610668576106676104b8565b5b600084013567ffffffffffffffff811115610686576106856104bd565b5b610692868287016105c9565b93505060206106a38682870161060e565b92505060406106b48682870161063a565b9150509250925092565b7f4e487b7100000000000000000000000000000000000000000000000000000000600052602260045260246000fd5b6000600282049050600182168061070557607f821691505b60208210811415610719576107186106be565b5b5091905056fea2646970667358221220f0b76cf3d74d368bda5e7c9e961b76a2e6d33cb36d6872e3b51c2b889e8b657864736f6c63430008080033",
					"opcodes": "PUSH1 0x80 PUSH1 0x40 MSTORE PUSH3 0x15180 PUSH1 0x3 SSTORE CALLVALUE DUP1 ISZERO PUSH2 0x17 JUMPI PUSH1 0x0 DUP1 REVERT JUMPDEST POP PUSH2 0x755 DUP1 PUSH2 0x27 PUSH1 0x0 CODECOPY PUSH1 0x0 RETURN INVALID PUSH1 0x80 PUSH1 0x40 MSTORE CALLVALUE DUP1 ISZERO PUSH2 0x10 JUMPI PUSH1 0x0 DUP1 REVERT JUMPDEST POP PUSH1 0x4 CALLDATASIZE LT PUSH2 0x4C JUMPI PUSH1 0x0 CALLDATALOAD PUSH1 0xE0 SHR DUP1 PUSH4 0x77EC2B55 EQ PUSH2 0x51 JUMPI DUP1 PUSH4 0x8EC4DC95 EQ PUSH2 0x71 JUMPI DUP1 PUSH4 0xC3AF13EE EQ PUSH2 0x91 JUMPI DUP1 PUSH4 0xDC63E34C EQ PUSH2 0x9B JUMPI JUMPDEST PUSH1 0x0 DUP1 REVERT JUMPDEST PUSH2 0x59 PUSH2 0xB7 JUMP JUMPDEST PUSH1 0x40 MLOAD PUSH2 0x68 SWAP4 SWAP3 SWAP2 SWAP1 PUSH2 0x470 JUMP JUMPDEST PUSH1 0x40 MLOAD DUP1 SWAP2 SUB SWAP1 RETURN JUMPDEST PUSH2 0x79 PUSH2 0x164 JUMP JUMPDEST PUSH1 0x40 MLOAD PUSH2 0x88 SWAP4 SWAP3 SWAP2 SWAP1 PUSH2 0x470 JUMP JUMPDEST PUSH1 0x40 MLOAD DUP1 SWAP2 SUB SWAP1 RETURN JUMPDEST PUSH2 0x99 PUSH2 0x21D JUMP JUMPDEST STOP JUMPDEST PUSH2 0xB5 PUSH1 0x4 DUP1 CALLDATASIZE SUB DUP2 ADD SWAP1 PUSH2 0xB0 SWAP2 SWAP1 PUSH2 0x64F JUMP JUMPDEST PUSH2 0x250 JUMP JUMPDEST STOP JUMPDEST PUSH1 0x0 DUP1 PUSH1 0x0 ADD DUP1 SLOAD PUSH2 0xC8 SWAP1 PUSH2 0x6ED JUMP JUMPDEST DUP1 PUSH1 0x1F ADD PUSH1 0x20 DUP1 SWAP2 DIV MUL PUSH1 0x20 ADD PUSH1 0x40 MLOAD SWAP1 DUP2 ADD PUSH1 0x40 MSTORE DUP1 SWAP3 SWAP2 SWAP1 DUP2 DUP2 MSTORE PUSH1 0x20 ADD DUP3 DUP1 SLOAD PUSH2 0xF4 SWAP1 PUSH2 0x6ED JUMP JUMPDEST DUP1 ISZERO PUSH2 0x141 JUMPI DUP1 PUSH1 0x1F LT PUSH2 0x116 JUMPI PUSH2 0x100 DUP1 DUP4 SLOAD DIV MUL DUP4 MSTORE SWAP2 PUSH1 0x20 ADD SWAP2 PUSH2 0x141 JUMP JUMPDEST DUP3 ADD SWAP2 SWAP1 PUSH1 0x0 MSTORE PUSH1 0x20 PUSH1 0x0 KECCAK256 SWAP1 JUMPDEST DUP2 SLOAD DUP2 MSTORE SWAP1 PUSH1 0x1 ADD SWAP1 PUSH1 0x20 ADD DUP1 DUP4 GT PUSH2 0x124 JUMPI DUP3 SWAP1 SUB PUSH1 0x1F AND DUP3 ADD SWAP2 JUMPDEST POP POP POP POP POP SWAP1 DUP1 PUSH1 0x1 ADD PUSH1 0x0 SWAP1 SLOAD SWAP1 PUSH2 0x100 EXP SWAP1 DIV PUSH1 0xFF AND SWAP1 DUP1 PUSH1 0x2 ADD SLOAD SWAP1 POP DUP4 JUMP JUMPDEST PUSH1 0x60 PUSH1 0x0 DUP1 PUSH1 0x0 DUP1 ADD PUSH1 0x0 PUSH1 0x1 ADD PUSH1 0x0 SWAP1 SLOAD SWAP1 PUSH2 0x100 EXP SWAP1 DIV PUSH1 0xFF AND PUSH1 0x0 PUSH1 0x2 ADD SLOAD DUP3 DUP1 SLOAD PUSH2 0x192 SWAP1 PUSH2 0x6ED JUMP JUMPDEST DUP1 PUSH1 0x1F ADD PUSH1 0x20 DUP1 SWAP2 DIV MUL PUSH1 0x20 ADD PUSH1 0x40 MLOAD SWAP1 DUP2 ADD PUSH1 0x40 MSTORE DUP1 SWAP3 SWAP2 SWAP1 DUP2 DUP2 MSTORE PUSH1 0x20 ADD DUP3 DUP1 SLOAD PUSH2 0x1BE SWAP1 PUSH2 0x6ED JUMP JUMPDEST DUP1 ISZERO PUSH2 0x20B JUMPI DUP1 PUSH1 0x1F LT PUSH2 0x1E0 JUMPI PUSH2 0x100 DUP1 DUP4 SLOAD DIV MUL DUP4 MSTORE SWAP2 PUSH1 0x20 ADD SWAP2 PUSH2 0x20B JUMP JUMPDEST DUP3 ADD SWAP2 SWAP1 PUSH1 0x0 MSTORE PUSH1 0x20 PUSH1 0x0 KECCAK256 SWAP1 JUMPDEST DUP2 SLOAD DUP2 MSTORE SWAP1 PUSH1 0x1 ADD SWAP1 PUSH1 0x20 ADD DUP1 DUP4 GT PUSH2 0x1EE JUMPI DUP3 SWAP1 SUB PUSH1 0x1F AND DUP3 ADD SWAP2 JUMPDEST POP POP POP POP POP SWAP3 POP SWAP3 POP SWAP3 POP SWAP3 POP SWAP1 SWAP2 SWAP3 JUMP JUMPDEST PUSH1 0x0 DUP1 PUSH1 0x0 DUP3 ADD PUSH1 0x0 PUSH2 0x230 SWAP2 SWAP1 PUSH2 0x2BF JUMP JUMPDEST PUSH1 0x1 DUP3 ADD PUSH1 0x0 PUSH2 0x100 EXP DUP2 SLOAD SWAP1 PUSH1 0xFF MUL NOT AND SWAP1 SSTORE PUSH1 0x2 DUP3 ADD PUSH1 0x0 SWAP1 SSTORE POP POP JUMP JUMPDEST PUSH1 0x40 MLOAD DUP1 PUSH1 0x60 ADD PUSH1 0x40 MSTORE DUP1 DUP5 DUP2 MSTORE PUSH1 0x20 ADD DUP4 PUSH1 0xFF AND DUP2 MSTORE PUSH1 0x20 ADD DUP3 DUP2 MSTORE POP PUSH1 0x0 DUP1 DUP3 ADD MLOAD DUP2 PUSH1 0x0 ADD SWAP1 DUP1 MLOAD SWAP1 PUSH1 0x20 ADD SWAP1 PUSH2 0x28B SWAP3 SWAP2 SWAP1 PUSH2 0x2FF JUMP JUMPDEST POP PUSH1 0x20 DUP3 ADD MLOAD DUP2 PUSH1 0x1 ADD PUSH1 0x0 PUSH2 0x100 EXP DUP2 SLOAD DUP2 PUSH1 0xFF MUL NOT AND SWAP1 DUP4 PUSH1 0xFF AND MUL OR SWAP1 SSTORE POP PUSH1 0x40 DUP3 ADD MLOAD DUP2 PUSH1 0x2 ADD SSTORE SWAP1 POP POP POP POP POP JUMP JUMPDEST POP DUP1 SLOAD PUSH2 0x2CB SWAP1 PUSH2 0x6ED JUMP JUMPDEST PUSH1 0x0 DUP3 SSTORE DUP1 PUSH1 0x1F LT PUSH2 0x2DD JUMPI POP PUSH2 0x2FC JUMP JUMPDEST PUSH1 0x1F ADD PUSH1 0x20 SWAP1 DIV SWAP1 PUSH1 0x0 MSTORE PUSH1 0x20 PUSH1 0x0 KECCAK256 SWAP1 DUP2 ADD SWAP1 PUSH2 0x2FB SWAP2 SWAP1 PUSH2 0x385 JUMP JUMPDEST JUMPDEST POP JUMP JUMPDEST DUP3 DUP1 SLOAD PUSH2 0x30B SWAP1 PUSH2 0x6ED JUMP JUMPDEST SWAP1 PUSH1 0x0 MSTORE PUSH1 0x20 PUSH1 0x0 KECCAK256 SWAP1 PUSH1 0x1F ADD PUSH1 0x20 SWAP1 DIV DUP2 ADD SWAP3 DUP3 PUSH2 0x32D JUMPI PUSH1 0x0 DUP6 SSTORE PUSH2 0x374 JUMP JUMPDEST DUP3 PUSH1 0x1F LT PUSH2 0x346 JUMPI DUP1 MLOAD PUSH1 0xFF NOT AND DUP4 DUP1 ADD OR DUP6 SSTORE PUSH2 0x374 JUMP JUMPDEST DUP3 DUP1 ADD PUSH1 0x1 ADD DUP6 SSTORE DUP3 ISZERO PUSH2 0x374 JUMPI SWAP2 DUP3 ADD JUMPDEST DUP3 DUP2 GT ISZERO PUSH2 0x373 JUMPI DUP3 MLOAD DUP3 SSTORE SWAP2 PUSH1 0x20 ADD SWAP2 SWAP1 PUSH1 0x1 ADD SWAP1 PUSH2 0x358 JUMP JUMPDEST JUMPDEST POP SWAP1 POP PUSH2 0x381 SWAP2 SWAP1 PUSH2 0x385 JUMP JUMPDEST POP SWAP1 JUMP JUMPDEST JUMPDEST DUP1 DUP3 GT ISZERO PUSH2 0x39E JUMPI PUSH1 0x0 DUP2 PUSH1 0x0 SWAP1 SSTORE POP PUSH1 0x1 ADD PUSH2 0x386 JUMP JUMPDEST POP SWAP1 JUMP JUMPDEST PUSH1 0x0 DUP2 MLOAD SWAP1 POP SWAP2 SWAP1 POP JUMP JUMPDEST PUSH1 0x0 DUP3 DUP3 MSTORE PUSH1 0x20 DUP3 ADD SWAP1 POP SWAP3 SWAP2 POP POP JUMP JUMPDEST PUSH1 0x0 JUMPDEST DUP4 DUP2 LT ISZERO PUSH2 0x3DC JUMPI DUP1 DUP3 ADD MLOAD DUP2 DUP5 ADD MSTORE PUSH1 0x20 DUP2 ADD SWAP1 POP PUSH2 0x3C1 JUMP JUMPDEST DUP4 DUP2 GT ISZERO PUSH2 0x3EB JUMPI PUSH1 0x0 DUP5 DUP5 ADD MSTORE JUMPDEST POP POP POP POP JUMP JUMPDEST PUSH1 0x0 PUSH1 0x1F NOT PUSH1 0x1F DUP4 ADD AND SWAP1 POP SWAP2 SWAP1 POP JUMP JUMPDEST PUSH1 0x0 PUSH2 0x40D DUP3 PUSH2 0x3A2 JUMP JUMPDEST PUSH2 0x417 DUP2 DUP6 PUSH2 0x3AD JUMP JUMPDEST SWAP4 POP PUSH2 0x427 DUP2 DUP6 PUSH1 0x20 DUP7 ADD PUSH2 0x3BE JUMP JUMPDEST PUSH2 0x430 DUP2 PUSH2 0x3F1 JUMP JUMPDEST DUP5 ADD SWAP2 POP POP SWAP3 SWAP2 POP POP JUMP JUMPDEST PUSH1 0x0 PUSH1 0xFF DUP3 AND SWAP1 POP SWAP2 SWAP1 POP JUMP JUMPDEST PUSH2 0x451 DUP2 PUSH2 0x43B JUMP JUMPDEST DUP3 MSTORE POP POP JUMP JUMPDEST PUSH1 0x0 DUP2 SWAP1 POP SWAP2 SWAP1 POP JUMP JUMPDEST PUSH2 0x46A DUP2 PUSH2 0x457 JUMP JUMPDEST DUP3 MSTORE POP POP JUMP JUMPDEST PUSH1 0x0 PUSH1 0x60 DUP3 ADD SWAP1 POP DUP2 DUP2 SUB PUSH1 0x0 DUP4 ADD MSTORE PUSH2 0x48A DUP2 DUP7 PUSH2 0x402 JUMP JUMPDEST SWAP1 POP PUSH2 0x499 PUSH1 0x20 DUP4 ADD DUP6 PUSH2 0x448 JUMP JUMPDEST PUSH2 0x4A6 PUSH1 0x40 DUP4 ADD DUP5 PUSH2 0x461 JUMP JUMPDEST SWAP5 SWAP4 POP POP POP POP JUMP JUMPDEST PUSH1 0x0 PUSH1 0x40 MLOAD SWAP1 POP SWAP1 JUMP JUMPDEST PUSH1 0x0 DUP1 REVERT JUMPDEST PUSH1 0x0 DUP1 REVERT JUMPDEST PUSH1 0x0 DUP1 REVERT JUMPDEST PUSH1 0x0 DUP1 REVERT JUMPDEST PUSH32 0x4E487B7100000000000000000000000000000000000000000000000000000000 PUSH1 0x0 MSTORE PUSH1 0x41 PUSH1 0x4 MSTORE PUSH1 0x24 PUSH1 0x0 REVERT JUMPDEST PUSH2 0x504 DUP3 PUSH2 0x3F1 JUMP JUMPDEST DUP2 ADD DUP2 DUP2 LT PUSH8 0xFFFFFFFFFFFFFFFF DUP3 GT OR ISZERO PUSH2 0x523 JUMPI PUSH2 0x522 PUSH2 0x4CC JUMP JUMPDEST JUMPDEST DUP1 PUSH1 0x40 MSTORE POP POP POP JUMP JUMPDEST PUSH1 0x0 PUSH2 0x536 PUSH2 0x4AE JUMP JUMPDEST SWAP1 POP PUSH2 0x542 DUP3 DUP3 PUSH2 0x4FB JUMP JUMPDEST SWAP2 SWAP1 POP JUMP JUMPDEST PUSH1 0x0 PUSH8 0xFFFFFFFFFFFFFFFF DUP3 GT ISZERO PUSH2 0x562 JUMPI PUSH2 0x561 PUSH2 0x4CC JUMP JUMPDEST JUMPDEST PUSH2 0x56B DUP3 PUSH2 0x3F1 JUMP JUMPDEST SWAP1 POP PUSH1 0x20 DUP2 ADD SWAP1 POP SWAP2 SWAP1 POP JUMP JUMPDEST DUP3 DUP2 DUP4 CALLDATACOPY PUSH1 0x0 DUP4 DUP4 ADD MSTORE POP POP POP JUMP JUMPDEST PUSH1 0x0 PUSH2 0x59A PUSH2 0x595 DUP5 PUSH2 0x547 JUMP JUMPDEST PUSH2 0x52C JUMP JUMPDEST SWAP1 POP DUP3 DUP2 MSTORE PUSH1 0x20 DUP2 ADD DUP5 DUP5 DUP5 ADD GT ISZERO PUSH2 0x5B6 JUMPI PUSH2 0x5B5 PUSH2 0x4C7 JUMP JUMPDEST JUMPDEST PUSH2 0x5C1 DUP5 DUP3 DUP6 PUSH2 0x578 JUMP JUMPDEST POP SWAP4 SWAP3 POP POP POP JUMP JUMPDEST PUSH1 0x0 DUP3 PUSH1 0x1F DUP4 ADD SLT PUSH2 0x5DE JUMPI PUSH2 0x5DD PUSH2 0x4C2 JUMP JUMPDEST JUMPDEST DUP2 CALLDATALOAD PUSH2 0x5EE DUP5 DUP3 PUSH1 0x20 DUP7 ADD PUSH2 0x587 JUMP JUMPDEST SWAP2 POP POP SWAP3 SWAP2 POP POP JUMP JUMPDEST PUSH2 0x600 DUP2 PUSH2 0x43B JUMP JUMPDEST DUP2 EQ PUSH2 0x60B JUMPI PUSH1 0x0 DUP1 REVERT JUMPDEST POP JUMP JUMPDEST PUSH1 0x0 DUP2 CALLDATALOAD SWAP1 POP PUSH2 0x61D DUP2 PUSH2 0x5F7 JUMP JUMPDEST SWAP3 SWAP2 POP POP JUMP JUMPDEST PUSH2 0x62C DUP2 PUSH2 0x457 JUMP JUMPDEST DUP2 EQ PUSH2 0x637 JUMPI PUSH1 0x0 DUP1 REVERT JUMPDEST POP JUMP JUMPDEST PUSH1 0x0 DUP2 CALLDATALOAD SWAP1 POP PUSH2 0x649 DUP2 PUSH2 0x623 JUMP JUMPDEST SWAP3 SWAP2 POP POP JUMP JUMPDEST PUSH1 0x0 DUP1 PUSH1 0x0 PUSH1 0x60 DUP5 DUP7 SUB SLT ISZERO PUSH2 0x668 JUMPI PUSH2 0x667 PUSH2 0x4B8 JUMP JUMPDEST JUMPDEST PUSH1 0x0 DUP5 ADD CALLDATALOAD PUSH8 0xFFFFFFFFFFFFFFFF DUP2 GT ISZERO PUSH2 0x686 JUMPI PUSH2 0x685 PUSH2 0x4BD JUMP JUMPDEST JUMPDEST PUSH2 0x692 DUP7 DUP3 DUP8 ADD PUSH2 0x5C9 JUMP JUMPDEST SWAP4 POP POP PUSH1 0x20 PUSH2 0x6A3 DUP7 DUP3 DUP8 ADD PUSH2 0x60E JUMP JUMPDEST SWAP3 POP POP PUSH1 0x40 PUSH2 0x6B4 DUP7 DUP3 DUP8 ADD PUSH2 0x63A JUMP JUMPDEST SWAP2 POP POP SWAP3 POP SWAP3 POP SWAP3 JUMP JUMPDEST PUSH32 0x4E487B7100000000000000000000000000000000000000000000000000000000 PUSH1 0x0 MSTORE PUSH1 0x22 PUSH1 0x4 MSTORE PUSH1 0x24 PUSH1 0x0 REVERT JUMPDEST PUSH1 0x0 PUSH1 0x2 DUP3 DIV SWAP1 POP PUSH1 0x1 DUP3 AND DUP1 PUSH2 0x705 JUMPI PUSH1 0x7F DUP3 AND SWAP2 POP JUMPDEST PUSH1 0x20 DUP3 LT DUP2 EQ ISZERO PUSH2 0x719 JUMPI PUSH2 0x718 PUSH2 0x6BE JUMP JUMPDEST JUMPDEST POP SWAP2 SWAP1 POP JUMP INVALID LOG2 PUSH5 0x6970667358 0x22 SLT KECCAK256 CREATE 0xB7 PUSH13 0xF3D74D368BDA5E7C9E961B76A2 0xE6 0xD3 EXTCODECOPY 0xB3 PUSH14 0x6872E3B51C2B889E8B657864736F PUSH13 0x63430008080033000000000000 "
				},
				"gasEstimates": {
					"creation": {
						"codeDepositCost": "375400",
						"executionCost": "22517",
						"totalCost": "397917"
					},
					"external": {
						"clearPerson()": "infinite",
						"getPerson()": "infinite",
						"person()": "infinite",
						"setPerson(string,uint8,uint256)": "infinite"
					}
				},
				"methodIdentifiers": {
					"clearPerson()": "c3af13ee",
					"getPerson()": "8ec4dc95",
					"person()": "77ec2b55",
					"setPerson(string,uint8,uint256)": "dc63e34c"
				}
			},
			"storageLayout": {
				"storage": [
					{
						"astId": 11,
						"contract": "contracts/SimpleStorage.sol:SimpleStorage",
						"label": "person",
						"offset": 0,
						"slot": "0",
						"type": "t_struct(people)8_storage"
					},
					{
						"astId": 57,
						"contract": "contracts/SimpleStorage.sol:SimpleStorage",
						"label": "tunggu",
						"offset": 0,
						"slot": "3",
						"type": "t_uint256"
					}
				],
				"types": {
					"t_string_storage": {
						"encoding": "bytes",
						"label": "string",
						"numberOfBytes": "32"
					},
					"t_struct(people)8_storage": {
						"encoding": "inplace",
						"label": "struct SimpleStorage.people",
						"members": [
							{
								"astId": 3,
								"contract": "contracts/SimpleStorage.sol:SimpleStorage",
								"label": "name",
								"offset": 0,
								"slot": "0",
								"type": "t_string_storage"
							},
							{
								"astId": 5,
								"contract": "contracts/SimpleStorage.sol:SimpleStorage",
								"label": "age",
								"offset": 0,
								"slot": "1",
								"type": "t_uint8"
							},
							{
								"astId": 7,
								"contract": "contracts/SimpleStorage.sol:SimpleStorage",
								"label": "favoriteNumber",
								"offset": 0,
								"slot": "2",
								"type": "t_uint256"
							}
						],
						"numberOfBytes": "96"
					},
					"t_uint256": {
						"encoding": "inplace",
						"label": "uint256",
						"numberOfBytes": "32"
					},
					"t_uint8": {
						"encoding": "inplace",
						"label": "uint8",
						"numberOfBytes": "1"
					}
				}
			},
			"userdoc": {
				"kind": "user",
				"methods": {},
				"version": 1
			}
		}
	}
}