{
	"data": {
		"bytecode": {
			"linkReferences": {},
			"object": "608060405234801561001057600080fd5b50610298806100206000396000f3fe608060405234801561001057600080fd5b50600436106100415760003560e01c806373bef62214610046578063c782903014610064578063d14d42ba14610080575b600080fd5b61004e61009e565b60405161005b91906100f7565b60405180910390f35b61007e60048036038101906100799190610143565b6100b5565b005b6100886100c7565b60405161009591906100f7565b60405180910390f35b60006001546000546100b091906101b2565b905090565b81600081905550806001819055505050565b60006001546000546100d9919061020c565b905090565b6000819050919050565b6100f1816100de565b82525050565b600060208201905061010c60008301846100e8565b92915050565b600080fd5b610120816100de565b811461012b57600080fd5b50565b60008135905061013d81610117565b92915050565b6000806040838503121561015a57610159610112565b5b60006101688582860161012e565b92505060206101798582860161012e565b9150509250929050565b7f4e487b7100000000000000000000000000000000000000000000000000000000600052601160045260246000fd5b60006101bd826100de565b91506101c8836100de565b9250817fffffffffffffffffffffffffffffffffffffffffffffffffffffffffffffffff048311821515161561020157610200610183565b5b828202905092915050565b6000610217826100de565b9150610222836100de565b9250827fffffffffffffffffffffffffffffffffffffffffffffffffffffffffffffffff0382111561025757610256610183565b5b82820190509291505056fea2646970667358221220da1861fdac598f22eb827eb964acae436e16ad3101b8dac689b1e50bcdee6f4064736f6c63430008080033",
			"opcodes": "PUSH1 0x80 PUSH1 0x40 MSTORE CALLVALUE DUP1 ISZERO PUSH2 0x10 JUMPI PUSH1 0x0 DUP1 REVERT JUMPDEST POP PUSH2 0x298 DUP1 PUSH2 0x20 PUSH1 0x0 CODECOPY PUSH1 0x0 RETURN INVALID PUSH1 0x80 PUSH1 0x40 MSTORE CALLVALUE DUP1 ISZERO PUSH2 0x10 JUMPI PUSH1 0x0 DUP1 REVERT JUMPDEST POP PUSH1 0x4 CALLDATASIZE LT PUSH2 0x41 JUMPI PUSH1 0x0 CALLDATALOAD PUSH1 0xE0 SHR DUP1 PUSH4 0x73BEF622 EQ PUSH2 0x46 JUMPI DUP1 PUSH4 0xC7829030 EQ PUSH2 0x64 JUMPI DUP1 PUSH4 0xD14D42BA EQ PUSH2 0x80 JUMPI JUMPDEST PUSH1 0x0 DUP1 REVERT JUMPDEST PUSH2 0x4E PUSH2 0x9E JUMP JUMPDEST PUSH1 0x40 MLOAD PUSH2 0x5B SWAP2 SWAP1 PUSH2 0xF7 JUMP JUMPDEST PUSH1 0x40 MLOAD DUP1 SWAP2 SUB SWAP1 RETURN JUMPDEST PUSH2 0x7E PUSH1 0x4 DUP1 CALLDATASIZE SUB DUP2 ADD SWAP1 PUSH2 0x79 SWAP2 SWAP1 PUSH2 0x143 JUMP JUMPDEST PUSH2 0xB5 JUMP JUMPDEST STOP JUMPDEST PUSH2 0x88 PUSH2 0xC7 JUMP JUMPDEST PUSH1 0x40 MLOAD PUSH2 0x95 SWAP2 SWAP1 PUSH2 0xF7 JUMP JUMPDEST PUSH1 0x40 MLOAD DUP1 SWAP2 SUB SWAP1 RETURN JUMPDEST PUSH1 0x0 PUSH1 0x1 SLOAD PUSH1 0x0 SLOAD PUSH2 0xB0 SWAP2 SWAP1 PUSH2 0x1B2 JUMP JUMPDEST SWAP1 POP SWAP1 JUMP JUMPDEST DUP2 PUSH1 0x0 DUP2 SWAP1 SSTORE POP DUP1 PUSH1 0x1 DUP2 SWAP1 SSTORE POP POP POP JUMP JUMPDEST PUSH1 0x0 PUSH1 0x1 SLOAD PUSH1 0x0 SLOAD PUSH2 0xD9 SWAP2 SWAP1 PUSH2 0x20C JUMP JUMPDEST SWAP1 POP SWAP1 JUMP JUMPDEST PUSH1 0x0 DUP2 SWAP1 POP SWAP2 SWAP1 POP JUMP JUMPDEST PUSH2 0xF1 DUP2 PUSH2 0xDE JUMP JUMPDEST DUP3 MSTORE POP POP JUMP JUMPDEST PUSH1 0x0 PUSH1 0x20 DUP3 ADD SWAP1 POP PUSH2 0x10C PUSH1 0x0 DUP4 ADD DUP5 PUSH2 0xE8 JUMP JUMPDEST SWAP3 SWAP2 POP POP JUMP JUMPDEST PUSH1 0x0 DUP1 REVERT JUMPDEST PUSH2 0x120 DUP2 PUSH2 0xDE JUMP JUMPDEST DUP2 EQ PUSH2 0x12B JUMPI PUSH1 0x0 DUP1 REVERT JUMPDEST POP JUMP JUMPDEST PUSH1 0x0 DUP2 CALLDATALOAD SWAP1 POP PUSH2 0x13D DUP2 PUSH2 0x117 JUMP JUMPDEST SWAP3 SWAP2 POP POP JUMP JUMPDEST PUSH1 0x0 DUP1 PUSH1 0x40 DUP4 DUP6 SUB SLT ISZERO PUSH2 0x15A JUMPI PUSH2 0x159 PUSH2 0x112 JUMP JUMPDEST JUMPDEST PUSH1 0x0 PUSH2 0x168 DUP6 DUP3 DUP7 ADD PUSH2 0x12E JUMP JUMPDEST SWAP3 POP POP PUSH1 0x20 PUSH2 0x179 DUP6 DUP3 DUP7 ADD PUSH2 0x12E JUMP JUMPDEST SWAP2 POP POP SWAP3 POP SWAP3 SWAP1 POP JUMP JUMPDEST PUSH32 0x4E487B7100000000000000000000000000000000000000000000000000000000 PUSH1 0x0 MSTORE PUSH1 0x11 PUSH1 0x4 MSTORE PUSH1 0x24 PUSH1 0x0 REVERT JUMPDEST PUSH1 0x0 PUSH2 0x1BD DUP3 PUSH2 0xDE JUMP JUMPDEST SWAP2 POP PUSH2 0x1C8 DUP4 PUSH2 0xDE JUMP JUMPDEST SWAP3 POP DUP2 PUSH32 0xFFFFFFFFFFFFFFFFFFFFFFFFFFFFFFFFFFFFFFFFFFFFFFFFFFFFFFFFFFFFFFFF DIV DUP4 GT DUP3 ISZERO ISZERO AND ISZERO PUSH2 0x201 JUMPI PUSH2 0x200 PUSH2 0x183 JUMP JUMPDEST JUMPDEST DUP3 DUP3 MUL SWAP1 POP SWAP3 SWAP2 POP POP JUMP JUMPDEST PUSH1 0x0 PUSH2 0x217 DUP3 PUSH2 0xDE JUMP JUMPDEST SWAP2 POP PUSH2 0x222 DUP4 PUSH2 0xDE JUMP JUMPDEST SWAP3 POP DUP3 PUSH32 0xFFFFFFFFFFFFFFFFFFFFFFFFFFFFFFFFFFFFFFFFFFFFFFFFFFFFFFFFFFFFFFFF SUB DUP3 GT ISZERO PUSH2 0x257 JUMPI PUSH2 0x256 PUSH2 0x183 JUMP JUMPDEST JUMPDEST DUP3 DUP3 ADD SWAP1 POP SWAP3 SWAP2 POP POP JUMP INVALID LOG2 PUSH5 0x6970667358 0x22 SLT KECCAK256 0xDA XOR PUSH2 0xFDAC MSIZE DUP16 0x22 0xEB DUP3 PUSH31 0xB964ACAE436E16AD3101B8DAC689B1E50BCDEE6F4064736F6C634300080800 CALLER "
		},
		"gasEstimates": {
			"creation": {
				"codeDepositCost": "132800",
				"executionCost": "177",
				"totalCost": "132977"
			},
			"external": {
				"getAdd()": "infinite",
				"getMultiply()": "infinite",
				"storeValue(uint256,uint256)": "infinite"
			}
		},
		"methodIdentifiers": {
			"getAdd()": "d14d42ba",
			"getMultiply()": "73bef622",
			"storeValue(uint256,uint256)": "c7829030"
		}
	},
	"abi": [
		{
			"inputs": [],
			"name": "getAdd",
			"outputs": [
				{
					"internalType": "uint256",
					"name": "",
					"type": "uint256"
				}
			],
			"stateMutability": "view",
			"type": "function"
		},
		{
			"inputs": [],
			"name": "getMultiply",
			"outputs": [
				{
					"internalType": "uint256",
					"name": "",
					"type": "uint256"
				}
			],
			"stateMutability": "view",
			"type": "function"
		},
		{
			"inputs": [
				{
					"internalType": "uint256",
					"name": "_value1",
					"type": "uint256"
				},
				{
					"internalType": "uint256",
					"name": "_value2",
					"type": "uint256"
				}
			],
			"name": "storeValue",
			"outputs": [],
			"stateMutability": "nonpayable",
			"type": "function"
		}
	]
}