{
	"data": {
		"bytecode": {
			"linkReferences": {},
			"object": "608060405234801561001057600080fd5b506103ac806100206000396000f3fe608060405234801561001057600080fd5b50600436106100575760003560e01c80634da0a1be1461005c57806373bef6221461007a578063c782903014610098578063d14d42ba146100b4578063dfee1840146100d2575b600080fd5b6100646100f0565b6040516100719190610177565b60405180910390f35b610082610107565b60405161008f9190610177565b60405180910390f35b6100b260048036038101906100ad91906101c3565b61011e565b005b6100bc610130565b6040516100c99190610177565b60405180910390f35b6100da610147565b6040516100e79190610177565b60405180910390f35b60006001546000546101029190610232565b905090565b60006001546000546101199190610266565b905090565b81600081905550806001819055505050565b600060015460005461014291906102c0565b905090565b60006001546000546101599190610345565b905090565b6000819050919050565b6101718161015e565b82525050565b600060208201905061018c6000830184610168565b92915050565b600080fd5b6101a08161015e565b81146101ab57600080fd5b50565b6000813590506101bd81610197565b92915050565b600080604083850312156101da576101d9610192565b5b60006101e8858286016101ae565b92505060206101f9858286016101ae565b9150509250929050565b7f4e487b7100000000000000000000000000000000000000000000000000000000600052601160045260246000fd5b600061023d8261015e565b91506102488361015e565b92508282101561025b5761025a610203565b5b828203905092915050565b60006102718261015e565b915061027c8361015e565b9250817fffffffffffffffffffffffffffffffffffffffffffffffffffffffffffffffff04831182151516156102b5576102b4610203565b5b828202905092915050565b60006102cb8261015e565b91506102d68361015e565b9250827fffffffffffffffffffffffffffffffffffffffffffffffffffffffffffffffff0382111561030b5761030a610203565b5b828201905092915050565b7f4e487b7100000000000000000000000000000000000000000000000000000000600052601260045260246000fd5b60006103508261015e565b915061035b8361015e565b92508261036b5761036a610316565b5b82820490509291505056fea264697066735822122092c2bf6f7c5b0c0218af5d5ad7afd3a6181f2cbc42e1a63305a59ca18caa684e64736f6c63430008080033",
			"opcodes": "PUSH1 0x80 PUSH1 0x40 MSTORE CALLVALUE DUP1 ISZERO PUSH2 0x10 JUMPI PUSH1 0x0 DUP1 REVERT JUMPDEST POP PUSH2 0x3AC DUP1 PUSH2 0x20 PUSH1 0x0 CODECOPY PUSH1 0x0 RETURN INVALID PUSH1 0x80 PUSH1 0x40 MSTORE CALLVALUE DUP1 ISZERO PUSH2 0x10 JUMPI PUSH1 0x0 DUP1 REVERT JUMPDEST POP PUSH1 0x4 CALLDATASIZE LT PUSH2 0x57 JUMPI PUSH1 0x0 CALLDATALOAD PUSH1 0xE0 SHR DUP1 PUSH4 0x4DA0A1BE EQ PUSH2 0x5C JUMPI DUP1 PUSH4 0x73BEF622 EQ PUSH2 0x7A JUMPI DUP1 PUSH4 0xC7829030 EQ PUSH2 0x98 JUMPI DUP1 PUSH4 0xD14D42BA EQ PUSH2 0xB4 JUMPI DUP1 PUSH4 0xDFEE1840 EQ PUSH2 0xD2 JUMPI JUMPDEST PUSH1 0x0 DUP1 REVERT JUMPDEST PUSH2 0x64 PUSH2 0xF0 JUMP JUMPDEST PUSH1 0x40 MLOAD PUSH2 0x71 SWAP2 SWAP1 PUSH2 0x177 JUMP JUMPDEST PUSH1 0x40 MLOAD DUP1 SWAP2 SUB SWAP1 RETURN JUMPDEST PUSH2 0x82 PUSH2 0x107 JUMP JUMPDEST PUSH1 0x40 MLOAD PUSH2 0x8F SWAP2 SWAP1 PUSH2 0x177 JUMP JUMPDEST PUSH1 0x40 MLOAD DUP1 SWAP2 SUB SWAP1 RETURN JUMPDEST PUSH2 0xB2 PUSH1 0x4 DUP1 CALLDATASIZE SUB DUP2 ADD SWAP1 PUSH2 0xAD SWAP2 SWAP1 PUSH2 0x1C3 JUMP JUMPDEST PUSH2 0x11E JUMP JUMPDEST STOP JUMPDEST PUSH2 0xBC PUSH2 0x130 JUMP JUMPDEST PUSH1 0x40 MLOAD PUSH2 0xC9 SWAP2 SWAP1 PUSH2 0x177 JUMP JUMPDEST PUSH1 0x40 MLOAD DUP1 SWAP2 SUB SWAP1 RETURN JUMPDEST PUSH2 0xDA PUSH2 0x147 JUMP JUMPDEST PUSH1 0x40 MLOAD PUSH2 0xE7 SWAP2 SWAP1 PUSH2 0x177 JUMP JUMPDEST PUSH1 0x40 MLOAD DUP1 SWAP2 SUB SWAP1 RETURN JUMPDEST PUSH1 0x0 PUSH1 0x1 SLOAD PUSH1 0x0 SLOAD PUSH2 0x102 SWAP2 SWAP1 PUSH2 0x232 JUMP JUMPDEST SWAP1 POP SWAP1 JUMP JUMPDEST PUSH1 0x0 PUSH1 0x1 SLOAD PUSH1 0x0 SLOAD PUSH2 0x119 SWAP2 SWAP1 PUSH2 0x266 JUMP JUMPDEST SWAP1 POP SWAP1 JUMP JUMPDEST DUP2 PUSH1 0x0 DUP2 SWAP1 SSTORE POP DUP1 PUSH1 0x1 DUP2 SWAP1 SSTORE POP POP POP JUMP JUMPDEST PUSH1 0x0 PUSH1 0x1 SLOAD PUSH1 0x0 SLOAD PUSH2 0x142 SWAP2 SWAP1 PUSH2 0x2C0 JUMP JUMPDEST SWAP1 POP SWAP1 JUMP JUMPDEST PUSH1 0x0 PUSH1 0x1 SLOAD PUSH1 0x0 SLOAD PUSH2 0x159 SWAP2 SWAP1 PUSH2 0x345 JUMP JUMPDEST SWAP1 POP SWAP1 JUMP JUMPDEST PUSH1 0x0 DUP2 SWAP1 POP SWAP2 SWAP1 POP JUMP JUMPDEST PUSH2 0x171 DUP2 PUSH2 0x15E JUMP JUMPDEST DUP3 MSTORE POP POP JUMP JUMPDEST PUSH1 0x0 PUSH1 0x20 DUP3 ADD SWAP1 POP PUSH2 0x18C PUSH1 0x0 DUP4 ADD DUP5 PUSH2 0x168 JUMP JUMPDEST SWAP3 SWAP2 POP POP JUMP JUMPDEST PUSH1 0x0 DUP1 REVERT JUMPDEST PUSH2 0x1A0 DUP2 PUSH2 0x15E JUMP JUMPDEST DUP2 EQ PUSH2 0x1AB JUMPI PUSH1 0x0 DUP1 REVERT JUMPDEST POP JUMP JUMPDEST PUSH1 0x0 DUP2 CALLDATALOAD SWAP1 POP PUSH2 0x1BD DUP2 PUSH2 0x197 JUMP JUMPDEST SWAP3 SWAP2 POP POP JUMP JUMPDEST PUSH1 0x0 DUP1 PUSH1 0x40 DUP4 DUP6 SUB SLT ISZERO PUSH2 0x1DA JUMPI PUSH2 0x1D9 PUSH2 0x192 JUMP JUMPDEST JUMPDEST PUSH1 0x0 PUSH2 0x1E8 DUP6 DUP3 DUP7 ADD PUSH2 0x1AE JUMP JUMPDEST SWAP3 POP POP PUSH1 0x20 PUSH2 0x1F9 DUP6 DUP3 DUP7 ADD PUSH2 0x1AE JUMP JUMPDEST SWAP2 POP POP SWAP3 POP SWAP3 SWAP1 POP JUMP JUMPDEST PUSH32 0x4E487B7100000000000000000000000000000000000000000000000000000000 PUSH1 0x0 MSTORE PUSH1 0x11 PUSH1 0x4 MSTORE PUSH1 0x24 PUSH1 0x0 REVERT JUMPDEST PUSH1 0x0 PUSH2 0x23D DUP3 PUSH2 0x15E JUMP JUMPDEST SWAP2 POP PUSH2 0x248 DUP4 PUSH2 0x15E JUMP JUMPDEST SWAP3 POP DUP3 DUP3 LT ISZERO PUSH2 0x25B JUMPI PUSH2 0x25A PUSH2 0x203 JUMP JUMPDEST JUMPDEST DUP3 DUP3 SUB SWAP1 POP SWAP3 SWAP2 POP POP JUMP JUMPDEST PUSH1 0x0 PUSH2 0x271 DUP3 PUSH2 0x15E JUMP JUMPDEST SWAP2 POP PUSH2 0x27C DUP4 PUSH2 0x15E JUMP JUMPDEST SWAP3 POP DUP2 PUSH32 0xFFFFFFFFFFFFFFFFFFFFFFFFFFFFFFFFFFFFFFFFFFFFFFFFFFFFFFFFFFFFFFFF DIV DUP4 GT DUP3 ISZERO ISZERO AND ISZERO PUSH2 0x2B5 JUMPI PUSH2 0x2B4 PUSH2 0x203 JUMP JUMPDEST JUMPDEST DUP3 DUP3 MUL SWAP1 POP SWAP3 SWAP2 POP POP JUMP JUMPDEST PUSH1 0x0 PUSH2 0x2CB DUP3 PUSH2 0x15E JUMP JUMPDEST SWAP2 POP PUSH2 0x2D6 DUP4 PUSH2 0x15E JUMP JUMPDEST SWAP3 POP DUP3 PUSH32 0xFFFFFFFFFFFFFFFFFFFFFFFFFFFFFFFFFFFFFFFFFFFFFFFFFFFFFFFFFFFFFFFF SUB DUP3 GT ISZERO PUSH2 0x30B JUMPI PUSH2 0x30A PUSH2 0x203 JUMP JUMPDEST JUMPDEST DUP3 DUP3 ADD SWAP1 POP SWAP3 SWAP2 POP POP JUMP JUMPDEST PUSH32 0x4E487B7100000000000000000000000000000000000000000000000000000000 PUSH1 0x0 MSTORE PUSH1 0x12 PUSH1 0x4 MSTORE PUSH1 0x24 PUSH1 0x0 REVERT JUMPDEST PUSH1 0x0 PUSH2 0x350 DUP3 PUSH2 0x15E JUMP JUMPDEST SWAP2 POP PUSH2 0x35B DUP4 PUSH2 0x15E JUMP JUMPDEST SWAP3 POP DUP3 PUSH2 0x36B JUMPI PUSH2 0x36A PUSH2 0x316 JUMP JUMPDEST JUMPDEST DUP3 DUP3 DIV SWAP1 POP SWAP3 SWAP2 POP POP JUMP INVALID LOG2 PUSH5 0x6970667358 0x22 SLT KECCAK256 SWAP3 0xC2 0xBF PUSH16 0x7C5B0C0218AF5D5AD7AFD3A6181F2CBC TIMESTAMP 0xE1 0xA6 CALLER SDIV 0xA5 SWAP13 LOG1 DUP13 0xAA PUSH9 0x4E64736F6C63430008 ADDMOD STOP CALLER "
		},
		"gasEstimates": {
			"creation": {
				"codeDepositCost": "188000",
				"executionCost": "232",
				"totalCost": "188232"
			},
			"external": {
				"getAdd()": "infinite",
				"getDivide()": "infinite",
				"getMultiply()": "infinite",
				"getSubtract()": "infinite",
				"storeValue(uint256,uint256)": "infinite"
			}
		},
		"methodIdentifiers": {
			"getAdd()": "d14d42ba",
			"getDivide()": "dfee1840",
			"getMultiply()": "73bef622",
			"getSubtract()": "4da0a1be",
			"storeValue(uint256,uint256)": "c7829030"
		}
	},
	"abi": [
		{
			"inputs": [],
			"name": "getAdd",
			"outputs": [
				{
					"internalType": "uint256",
					"name": "",
					"type": "uint256"
				}
			],
			"stateMutability": "view",
			"type": "function"
		},
		{
			"inputs": [],
			"name": "getDivide",
			"outputs": [
				{
					"internalType": "uint256",
					"name": "",
					"type": "uint256"
				}
			],
			"stateMutability": "view",
			"type": "function"
		},
		{
			"inputs": [],
			"name": "getMultiply",
			"outputs": [
				{
					"internalType": "uint256",
					"name": "",
					"type": "uint256"
				}
			],
			"stateMutability": "view",
			"type": "function"
		},
		{
			"inputs": [],
			"name": "getSubtract",
			"outputs": [
				{
					"internalType": "uint256",
					"name": "",
					"type": "uint256"
				}
			],
			"stateMutability": "view",
			"type": "function"
		},
		{
			"inputs": [
				{
					"internalType": "uint256",
					"name": "_value1",
					"type": "uint256"
				},
				{
					"internalType": "uint256",
					"name": "_value2",
					"type": "uint256"
				}
			],
			"name": "storeValue",
			"outputs": [],
			"stateMutability": "nonpayable",
			"type": "function"
		}
	]
}