{
	"data": {
		"bytecode": {
			"linkReferences": {},
			"object": "608060405234801561001057600080fd5b506103b7806100206000396000f3fe608060405234801561001057600080fd5b506004361061004c5760003560e01c8063165c4a16146100515780633ef5e44514610081578063771602f7146100b1578063f88e9fbf146100e1575b600080fd5b61006b600480360381019061006691906101a4565b610111565b60405161007891906101f3565b60405180910390f35b61009b600480360381019061009691906101a4565b610127565b6040516100a891906101f3565b60405180910390f35b6100cb60048036038101906100c691906101a4565b61013d565b6040516100d891906101f3565b60405180910390f35b6100fb60048036038101906100f691906101a4565b610153565b60405161010891906101f3565b60405180910390f35b6000818361011f919061023d565b905092915050565b600081836101359190610297565b905092915050565b6000818361014b91906102cb565b905092915050565b600081836101619190610350565b905092915050565b600080fd5b6000819050919050565b6101818161016e565b811461018c57600080fd5b50565b60008135905061019e81610178565b92915050565b600080604083850312156101bb576101ba610169565b5b60006101c98582860161018f565b92505060206101da8582860161018f565b9150509250929050565b6101ed8161016e565b82525050565b600060208201905061020860008301846101e4565b92915050565b7f4e487b7100000000000000000000000000000000000000000000000000000000600052601160045260246000fd5b60006102488261016e565b91506102538361016e565b9250817fffffffffffffffffffffffffffffffffffffffffffffffffffffffffffffffff048311821515161561028c5761028b61020e565b5b828202905092915050565b60006102a28261016e565b91506102ad8361016e565b9250828210156102c0576102bf61020e565b5b828203905092915050565b60006102d68261016e565b91506102e18361016e565b9250827fffffffffffffffffffffffffffffffffffffffffffffffffffffffffffffffff038211156103165761031561020e565b5b828201905092915050565b7f4e487b7100000000000000000000000000000000000000000000000000000000600052601260045260246000fd5b600061035b8261016e565b91506103668361016e565b92508261037657610375610321565b5b82820490509291505056fea2646970667358221220ab4f6a625a420f5953719862265c41df5e79d86f193f4d2269597b251e80a41e64736f6c63430008080033",
			"opcodes": "PUSH1 0x80 PUSH1 0x40 MSTORE CALLVALUE DUP1 ISZERO PUSH2 0x10 JUMPI PUSH1 0x0 DUP1 REVERT JUMPDEST POP PUSH2 0x3B7 DUP1 PUSH2 0x20 PUSH1 0x0 CODECOPY PUSH1 0x0 RETURN INVALID PUSH1 0x80 PUSH1 0x40 MSTORE CALLVALUE DUP1 ISZERO PUSH2 0x10 JUMPI PUSH1 0x0 DUP1 REVERT JUMPDEST POP PUSH1 0x4 CALLDATASIZE LT PUSH2 0x4C JUMPI PUSH1 0x0 CALLDATALOAD PUSH1 0xE0 SHR DUP1 PUSH4 0x165C4A16 EQ PUSH2 0x51 JUMPI DUP1 PUSH4 0x3EF5E445 EQ PUSH2 0x81 JUMPI DUP1 PUSH4 0x771602F7 EQ PUSH2 0xB1 JUMPI DUP1 PUSH4 0xF88E9FBF EQ PUSH2 0xE1 JUMPI JUMPDEST PUSH1 0x0 DUP1 REVERT JUMPDEST PUSH2 0x6B PUSH1 0x4 DUP1 CALLDATASIZE SUB DUP2 ADD SWAP1 PUSH2 0x66 SWAP2 SWAP1 PUSH2 0x1A4 JUMP JUMPDEST PUSH2 0x111 JUMP JUMPDEST PUSH1 0x40 MLOAD PUSH2 0x78 SWAP2 SWAP1 PUSH2 0x1F3 JUMP JUMPDEST PUSH1 0x40 MLOAD DUP1 SWAP2 SUB SWAP1 RETURN JUMPDEST PUSH2 0x9B PUSH1 0x4 DUP1 CALLDATASIZE SUB DUP2 ADD SWAP1 PUSH2 0x96 SWAP2 SWAP1 PUSH2 0x1A4 JUMP JUMPDEST PUSH2 0x127 JUMP JUMPDEST PUSH1 0x40 MLOAD PUSH2 0xA8 SWAP2 SWAP1 PUSH2 0x1F3 JUMP JUMPDEST PUSH1 0x40 MLOAD DUP1 SWAP2 SUB SWAP1 RETURN JUMPDEST PUSH2 0xCB PUSH1 0x4 DUP1 CALLDATASIZE SUB DUP2 ADD SWAP1 PUSH2 0xC6 SWAP2 SWAP1 PUSH2 0x1A4 JUMP JUMPDEST PUSH2 0x13D JUMP JUMPDEST PUSH1 0x40 MLOAD PUSH2 0xD8 SWAP2 SWAP1 PUSH2 0x1F3 JUMP JUMPDEST PUSH1 0x40 MLOAD DUP1 SWAP2 SUB SWAP1 RETURN JUMPDEST PUSH2 0xFB PUSH1 0x4 DUP1 CALLDATASIZE SUB DUP2 ADD SWAP1 PUSH2 0xF6 SWAP2 SWAP1 PUSH2 0x1A4 JUMP JUMPDEST PUSH2 0x153 JUMP JUMPDEST PUSH1 0x40 MLOAD PUSH2 0x108 SWAP2 SWAP1 PUSH2 0x1F3 JUMP JUMPDEST PUSH1 0x40 MLOAD DUP1 SWAP2 SUB SWAP1 RETURN JUMPDEST PUSH1 0x0 DUP2 DUP4 PUSH2 0x11F SWAP2 SWAP1 PUSH2 0x23D JUMP JUMPDEST SWAP1 POP SWAP3 SWAP2 POP POP JUMP JUMPDEST PUSH1 0x0 DUP2 DUP4 PUSH2 0x135 SWAP2 SWAP1 PUSH2 0x297 JUMP JUMPDEST SWAP1 POP SWAP3 SWAP2 POP POP JUMP JUMPDEST PUSH1 0x0 DUP2 DUP4 PUSH2 0x14B SWAP2 SWAP1 PUSH2 0x2CB JUMP JUMPDEST SWAP1 POP SWAP3 SWAP2 POP POP JUMP JUMPDEST PUSH1 0x0 DUP2 DUP4 PUSH2 0x161 SWAP2 SWAP1 PUSH2 0x350 JUMP JUMPDEST SWAP1 POP SWAP3 SWAP2 POP POP JUMP JUMPDEST PUSH1 0x0 DUP1 REVERT JUMPDEST PUSH1 0x0 DUP2 SWAP1 POP SWAP2 SWAP1 POP JUMP JUMPDEST PUSH2 0x181 DUP2 PUSH2 0x16E JUMP JUMPDEST DUP2 EQ PUSH2 0x18C JUMPI PUSH1 0x0 DUP1 REVERT JUMPDEST POP JUMP JUMPDEST PUSH1 0x0 DUP2 CALLDATALOAD SWAP1 POP PUSH2 0x19E DUP2 PUSH2 0x178 JUMP JUMPDEST SWAP3 SWAP2 POP POP JUMP JUMPDEST PUSH1 0x0 DUP1 PUSH1 0x40 DUP4 DUP6 SUB SLT ISZERO PUSH2 0x1BB JUMPI PUSH2 0x1BA PUSH2 0x169 JUMP JUMPDEST JUMPDEST PUSH1 0x0 PUSH2 0x1C9 DUP6 DUP3 DUP7 ADD PUSH2 0x18F JUMP JUMPDEST SWAP3 POP POP PUSH1 0x20 PUSH2 0x1DA DUP6 DUP3 DUP7 ADD PUSH2 0x18F JUMP JUMPDEST SWAP2 POP POP SWAP3 POP SWAP3 SWAP1 POP JUMP JUMPDEST PUSH2 0x1ED DUP2 PUSH2 0x16E JUMP JUMPDEST DUP3 MSTORE POP POP JUMP JUMPDEST PUSH1 0x0 PUSH1 0x20 DUP3 ADD SWAP1 POP PUSH2 0x208 PUSH1 0x0 DUP4 ADD DUP5 PUSH2 0x1E4 JUMP JUMPDEST SWAP3 SWAP2 POP POP JUMP JUMPDEST PUSH32 0x4E487B7100000000000000000000000000000000000000000000000000000000 PUSH1 0x0 MSTORE PUSH1 0x11 PUSH1 0x4 MSTORE PUSH1 0x24 PUSH1 0x0 REVERT JUMPDEST PUSH1 0x0 PUSH2 0x248 DUP3 PUSH2 0x16E JUMP JUMPDEST SWAP2 POP PUSH2 0x253 DUP4 PUSH2 0x16E JUMP JUMPDEST SWAP3 POP DUP2 PUSH32 0xFFFFFFFFFFFFFFFFFFFFFFFFFFFFFFFFFFFFFFFFFFFFFFFFFFFFFFFFFFFFFFFF DIV DUP4 GT DUP3 ISZERO ISZERO AND ISZERO PUSH2 0x28C JUMPI PUSH2 0x28B PUSH2 0x20E JUMP JUMPDEST JUMPDEST DUP3 DUP3 MUL SWAP1 POP SWAP3 SWAP2 POP POP JUMP JUMPDEST PUSH1 0x0 PUSH2 0x2A2 DUP3 PUSH2 0x16E JUMP JUMPDEST SWAP2 POP PUSH2 0x2AD DUP4 PUSH2 0x16E JUMP JUMPDEST SWAP3 POP DUP3 DUP3 LT ISZERO PUSH2 0x2C0 JUMPI PUSH2 0x2BF PUSH2 0x20E JUMP JUMPDEST JUMPDEST DUP3 DUP3 SUB SWAP1 POP SWAP3 SWAP2 POP POP JUMP JUMPDEST PUSH1 0x0 PUSH2 0x2D6 DUP3 PUSH2 0x16E JUMP JUMPDEST SWAP2 POP PUSH2 0x2E1 DUP4 PUSH2 0x16E JUMP JUMPDEST SWAP3 POP DUP3 PUSH32 0xFFFFFFFFFFFFFFFFFFFFFFFFFFFFFFFFFFFFFFFFFFFFFFFFFFFFFFFFFFFFFFFF SUB DUP3 GT ISZERO PUSH2 0x316 JUMPI PUSH2 0x315 PUSH2 0x20E JUMP JUMPDEST JUMPDEST DUP3 DUP3 ADD SWAP1 POP SWAP3 SWAP2 POP POP JUMP JUMPDEST PUSH32 0x4E487B7100000000000000000000000000000000000000000000000000000000 PUSH1 0x0 MSTORE PUSH1 0x12 PUSH1 0x4 MSTORE PUSH1 0x24 PUSH1 0x0 REVERT JUMPDEST PUSH1 0x0 PUSH2 0x35B DUP3 PUSH2 0x16E JUMP JUMPDEST SWAP2 POP PUSH2 0x366 DUP4 PUSH2 0x16E JUMP JUMPDEST SWAP3 POP DUP3 PUSH2 0x376 JUMPI PUSH2 0x375 PUSH2 0x321 JUMP JUMPDEST JUMPDEST DUP3 DUP3 DIV SWAP1 POP SWAP3 SWAP2 POP POP JUMP INVALID LOG2 PUSH5 0x6970667358 0x22 SLT KECCAK256 0xAB 0x4F PUSH11 0x625A420F5953719862265C COINBASE 0xDF 0x5E PUSH26 0xD86F193F4D2269597B251E80A41E64736F6C6343000808003300 "
		},
		"gasEstimates": {
			"creation": {
				"codeDepositCost": "190200",
				"executionCost": "232",
				"totalCost": "190432"
			},
			"external": {
				"add(uint256,uint256)": "infinite",
				"divide(uint256,uint256)": "infinite",
				"multiply(uint256,uint256)": "infinite",
				"subtract(uint256,uint256)": "infinite"
			}
		},
		"methodIdentifiers": {
			"add(uint256,uint256)": "771602f7",
			"divide(uint256,uint256)": "f88e9fbf",
			"multiply(uint256,uint256)": "165c4a16",
			"subtract(uint256,uint256)": "3ef5e445"
		}
	},
	"abi": [
		{
			"inputs": [
				{
					"internalType": "uint256",
					"name": "_a",
					"type": "uint256"
				},
				{
					"internalType": "uint256",
					"name": "_b",
					"type": "uint256"
				}
			],
			"name": "add",
			"outputs": [
				{
					"internalType": "uint256",
					"name": "",
					"type": "uint256"
				}
			],
			"stateMutability": "pure",
			"type": "function"
		},
		{
			"inputs": [
				{
					"internalType": "uint256",
					"name": "_a",
					"type": "uint256"
				},
				{
					"internalType": "uint256",
					"name": "_b",
					"type": "uint256"
				}
			],
			"name": "divide",
			"outputs": [
				{
					"internalType": "uint256",
					"name": "",
					"type": "uint256"
				}
			],
			"stateMutability": "pure",
			"type": "function"
		},
		{
			"inputs": [
				{
					"internalType": "uint256",
					"name": "_a",
					"type": "uint256"
				},
				{
					"internalType": "uint256",
					"name": "_b",
					"type": "uint256"
				}
			],
			"name": "multiply",
			"outputs": [
				{
					"internalType": "uint256",
					"name": "",
					"type": "uint256"
				}
			],
			"stateMutability": "pure",
			"type": "function"
		},
		{
			"inputs": [
				{
					"internalType": "uint256",
					"name": "_a",
					"type": "uint256"
				},
				{
					"internalType": "uint256",
					"name": "_b",
					"type": "uint256"
				}
			],
			"name": "subtract",
			"outputs": [
				{
					"internalType": "uint256",
					"name": "",
					"type": "uint256"
				}
			],
			"stateMutability": "pure",
			"type": "function"
		}
	]
}